:10084A003F065B4F666D7D077F6F777C395E7971F6
:0B085A00BF86DBCFE6EDFD87FFEF4619
:100678000725555923120307230732818385878964
:100688008B8D073C80828486888A8C022C0000012E
:100698002117012F01012401012E00013000013131
:1006A800000139FF012300013A00013B000122014A
:10075F00EF24FB601314601914601F24037023E54A
:10076F00A0541F4480F5A022E5A0541F44A0F5A07B
:10077F0022E5A0541F44C0F5A022E5A0541F44E079
:03078F00F5A022B0
:10087F007F0712075F7580FF7F0412075F7580FF88
:08088F000F12075FE4F580225F
:07000300AE071FEE70FA22A8
:0E06F400FF120702E52F90084A93F4FD7F01E4
:10070200AE077F0712075F7580FF1F12075FAF06F4
:100712007401A807088002C333D8FCF5807F071252
:09072200075F8D807FF4020003E3
:1005B7001207E87FCC12080F7F4412080F1207E8D2
:1005C7007FCC12080F7FBE12080F1208658F081222
:1005D7000865752C008F2DE52DF52CE508F52DE523
:1005E7002CC4F854F0C868FEE52DC4540F48FF7CAE
:1005F700007D0A1202DB8E2C8F2DE508540FFCE4D8
:10060700120226E4FBFA7920783F120116C004C0D3
:1006170005C006C007AC2CAD2DE4120221D003D0D3
:0F06270002D001D00012002512025A8E2C8F2D06
:0106360022A1
:10079200E4F508FD7F8E1208D7E508C394075015CB
:1007A200743C2508F8E6FF74252508F8E6FD1208D2
:0C07B200D7050880E47D807F8E0208D708
:100897007F8112072B8F317F8312072B8F307F8544
:0608A70012072B8F2E2228
:10035000E52F640170787DC11206F47DFF7F0212E3
:1003600007027F031207027F04120702AE2CAF2D93
:100370007C007D641202ED744A2FF58274083EF50C
:1003800083E493F4FD7F05120702AE2CAF2D7C00B1
:100390007D641202ED7E007F0ACFCDCFCECCCE128F
:1003A00002ED745A2FF58274083EF583E493F4FD50
:1003B0007F06120702AE2CAF2D7C007D0A1202EDE3
:1003C000744A2DF58274083CF583E4020443E52F5A
:1003D00064027DC1703D1206F47DFF7F02120702A8
:1003E000E52EC4540F93F4FD7F03120702E52E544B
:1003F0000F93F4FD7F041207027DBF7F05120702F1
:10040000E530C4540F93F4FD7F06120702E5305423
:100410000F8030E41206F47DFF7F021207027F0393
:100420001207027F041207027F05120702E52175F9
:10043000F00A8493F4FD7F06120702E52175F00AA5
:1004400084E5F093F4FD7F071207027F0712075F30
:040450007580FF2292
:07000E00AE071FEE70FA229D
:1008AD00538E7F5389F0758AB0758C3CC28DC28C86
:0508BD00D2AFD2A92218
:03000B000207BE2B
:1007BE00C0E0C0D075D000C007053AE53AB4641366
:1007CE00C28C7F0412075FE5394401F580858039BC
:0A07DE00753A00D007D0D0D0E03209
:1008C200538EBF53890F758BF0758DD8C28FC28E30
:0508D200D2AFD2AB2201
:03001B000206B921
:1006B900C0E0C0D075D000C007053BE53B640A70B7
:1006C90023F53BE53944F7FFBFF70B7F0412075FBA
:1006D900E53954F780097F0412075FE5394404F5C9
:0B06E90080858039D007D0D0D0E032EF
:030637001203505B
:10063A00E5307014E53170107F0412075FE5395414
:10064A00FEF580858039D28CE5247F04B401091235
:10065A00075FE53954FD800712075FE5394402F563
:0E066A0080858039E5226003D28E22C28E2266
:10045400C2B5D2B3D2B2D2B420B2237F2C12000ED2
:1004640020B21BE524B40105752402800375240120
:1004740020B20B1208971205B712063780F220B388
:100484002D7F2C12000E20B325E52FB40105752F06
:1004940002800DE52FB40205752F038003752F012B
:1004A40020B30B1208971205B712063780F2C2B4B4
:1004B400D2B3D2B2D2B520B3277F2C12000E20B310
:1004C4001FE52FB40309E521C394635002052120DD
:1004D400B30E1208971205B712035012063A80EFB2
:1004E40020B2437F2C12000E20B23BE52FB4031A36
:1004F400E521D3940A402F152120B22A120897121D
:1005040005B712035012063A80EFE52FB402172004
:10051400B2141208971205B785302E8531301203B4
:070524005012063A80E922A3
:10082D0012087F1207921208AD1208C21204541258
:0D083D0008971205B712035012063A80EF1B
:1008EB00E4FEC297EF1392A3EFC313FFD2970EBE92
:0208FB0008F003
:0108FD0022D8
:1008D700C29300C29700D293001208EBAF0512082B
:0408E700EBC29322AB
:10072B00E4FDC29300C29700D293001208EBE4FFE2
:10073B00C297EDC313FD30A303430580D2970FBFC0
:10074B0008EEC29300C29700D29700C2A300D2A3B7
:03075B0000AF05E7
:01075E002278
:0408FE007F327E00C7
:0B090200EF1FAC0670011E4C70F622C7
:02080F00AD0733
:10081100E4FBC294ED1392941208FED294EDC3133B
:0C082100FD0BBB08ED7F327E00020902D7
:10086500E4FBC294EDC313FDD29430940343058099
:090875001208FE0BBB08EBAF05F5
:01087E002257
:1007E800C200D2947F787E00120902C2947F207ED4
:1007F80003120902D2947F647E00120902A2949225
:06080800001208FEA20030
:01080E0022C7
:10001E000202C6E86480F8E933E83360110460F048
:10002E00ED33EC337009E8FCE9FDEAFEEBFF220448
:10003E0060DED3EB9FEA9EE99DE8C2E78CF0C2F743
:10004E0095F0400CE8CCF8E9CDF9EACEFAEBCFFB0F
:10005E0012029185D0F05804700320D5B3E80470D5
:10006E00075002B2D50202D092D5EC0460F7E4CC70
:10007E00C0E0C398F8603B94186008400DD0E0FBD8
:10008E000202A8E4FBFAC9FC8028E830E406E4C9C1
:10009E00FBE4CAFCE830E305E4C9CACBFCE854072C
:1000AE006010F8C3E913F9EA13FAEB13FBEC13FC37
:1000BE00D8F130F52FC3E49CFCEF9BFFEE9AFEEDDA
:1000CE0099FDD0E0FBEF4E4D4C701222DB03020285
:1000DE00CDEC2CFCEF33FFEE33FEED33FDED30E7D0
:1000EE00EB0202A8EF2BFFEE3AFEED39FDD0E0FB5E
:1000FE0050130BBB00030202D0ED13FDEE13FEEF07
:08010E0013FFEC13FC0202A830
:10011600EC4D6011E8497017ED33EC3304600DE4E3
:10012600FCFFFEFD22E933E8330470F80202C61232
:10013600029158046009E4CC248150062850090233
:1001460002D02840030202CDC0E0EB4A7044B980D9
:1001560006D0E0FB0202BCEF4E701CBD8008EBFF30
:10016600EAFEE9FD80EBE98DF0A4FEE5F00201FF71
:10017600E9CDF9EAFEEBFFEF89F0A4FCE5F0CE89C4
:10018600F0A42EFFE435F0CD89F0A42DFEE435F081
:100196008067EF4E7005BD80D780C3EF8BF0A4ACAF
:1001A600F0EE8BF0A42CFCE435F0F8EF8AF0A42CEA
:1001B600E5F038FCE433CB8DF0A42CFCE5F03BF8FD
:1001C600EE8AF0A42CFCE5F038F8E433CF89F0A4ED
:1001D6002CFCE5F038CF3400CE89F0A42FFFE5F0F3
:1001E6003EFEE433C98DF0A42EFEE5F039CD8AF04B
:1001F600A42FFFE5F03EFEE43DFD33D0E0FB5007C3
:100206000BBB000F0202D0EC2CFCEF33FFEE33FEEB
:06021600ED33FD0202A819
:10021C0075F020800E75F010800575F0087D007E5D
:10022C00007F003392D530D503120342EC334010DB
:10023C00EF33FFEE33FEED33FDEC33FCD5F0ED2266
:0E024C00E5F0247EA2D513CC92E7CDCEFF22A2
:10025A00EDD2E7CD33EC3392D524814006E4FFFE9C
:10026A00FDFC22FCE4CFCECDCC24E0501174FF80FB
:10027A00EDC3CC13CCCD13CDCE13CECF13CF047098
:07028A00F030D5DE02034253
:10029100E9D2E7C933E833F892D5EDD2E7CD33ECB3
:0702A10033FC5002B2D5222C
:1002A800EC30E7100FBF000C0EBE00080DBD0004B7
:1002B8000BEB6014A2D5EB13FCED92E7FD2274FF63
:1002C800FCFDFEFF22E480F8A2D574FF13FC7D80BC
:0302D800E480EFD0
:0300000002052BCB
:0C052B00787FE4F6D8FD7581420205726D
:1002DB00EF8DF0A4A8F0CF8CF0A428CE8DF0A42E37
:0202EB00FE22F1
:1002ED00BC000BBE0029EF8DF084FFADF022E4CCF5
:1002FD00F875F008EF2FFFEE33FEEC33FCEE9DECBE
:10030D00984005FCEE9DFE0FD5F0E9E4CEFD22ED03
:10031D00F8F5F0EE8420D21CFEADF075F008EF2F4D
:10032D00FFED33FD4007985006D5F0F222C398FD3E
:05033D000FD5F0EA22DB
:0E034200C3E49FFFE49EFEE49DFDE49CFC22CC
:1005370002082DE493A3F8E493A34003F68001F2A5
:1005470008DFF48029E493A3F85407240CC8C333C5
:10055700C4540F4420C8834004F456800146F6DF94
:10056700E4800B0102040810204080900678E47EA6
:10057700019360BCA3FF543F30E509541FFEE49389
:10058700A360010ECF54C025E060A840B8E493A350
:10059700FAE493A3F8E493A3C8C582C8CAC583CA7B
:1005A700F0A3C8C582C8CAC583CADFE9DEE780BE33
:0106B8000041
:00000001FF
