:100CCF003F065B4F666D7D077F6F777C395E79716D
:0B0CDF00BF86DBCFE6EDFD87FFEF4690
:100B9100011F00011828021A000002122328021D59
:100BA100000002080000011100010C0101200001F8
:100BB1001C01010E01010F010110010215000002CB
:0F0BC1000A003C010D010114000117000119FF8A
:07000300AE071FEE70FA22A8
:0A0AC5007F04120ACF851980E4FFB8
:100ACF00EF24FC601114601714601D1460232407B9
:100ADF00702753A01F22E5A0541F4480F5A022E5E4
:100AEF00A0541F44A0F5A022E5A0541F44C0F5A0B8
:0A0AFF0022E5A0541F44E0F5A022F8
:100D04007F04120ACF7580FF0F120ACFE4F5807FAB
:080D140007120ACF7580FF22CF
:1009D100E4FFFE1200547F90120C3D120D6E7F4316
:1009E100120C3D120D6EE51875F004A4FFAEF0C3B4
:1009F10074509518FDE49400FCCFCDCFCECCCE122F
:100A0100072EAB07C374509518FDE49400FC7E00DB
:100A11007F0412072EEF851FF0A42B75F033A4FF7E
:100A2100120C3D120D6E1200547F91120C3D120DED
:100A31006E120CB27E007C007D6412071C7D3312A5
:100A4100072EEF25E0FFEE33FE7C007D0A12072E14
:0A0A51008F1F7F01120D1C020DAE75
:100D3400438E80438904758AFF758CFFC28DD28CE3
:050D4400D2AFD2A9228C
:03000B00020DA142
:0D0DA100C0E0051EE51E7002051DD0E03209
:100D5C00538EFB75D73875D6FF438E10D2AF43AF89
:020D6C0004225F
:03006300020A5B33
:100A5B00C0E0C0D075D000C00705170514E514D34E
:100A6B00950D50124320207F05120ACF852080E47C
:100A7B00FF120ACF801AE514C3940540135320DFED
:100A8B007F05120ACF852080E4FF120ACF75140070
:100A9B000509E50970020508C39488E5089413401D
:100AAB0012851D1A851E1B750800750900751D0022
:0A0ABB00751E00D007D0D0D0E03245
:100C94001200547FA0120C3D120D6EE4FF120C3DA5
:0E0CA400120D6EAF11120C3D120D6E020DAE50
:100C69001200547FA0120C3D120D6EE4FF120C3DD0
:100C7900120D6E1200547FA1120C3D120D6E120C52
:0B0C8900B28F117F01120D1C020DAE96
:060DBA0000007F21DFFEB6
:010DC0002210
:100D8000E4FED290120DBAC290120DBA0EBE08F255
:010D90002240
:100D9100538EBF53890FE4F58BF58DC28FC28E221E
:100B0900120D80D28E208F032091FAC28E308F0968
:100B19007515037516E7C28F22AF8D7515008F16EF
:100B2900E516AD8BF515EDF516AE15FF7C007D11BB
:100B390012071C7C037DE812072E8E158F16E4F52B
:040B49008BF58D2279
:10000E00E493F4FD7F011200257DFF7F021200258F
:07001E007F031200257F049F
:10002500AE077F06120ACFAF067401A80708800243
:10003500C333D8FCF5807F07120ACF8D807FF41279
:0F00450000037F07120ACF7580FFE4FF020ACF86
:10006600E51C640160030202DAE50E640160030226
:1000760001B67D8EFF1200257DFF7F01120025AEA1
:100086001AAF1BE4FCFD7B9F7A867901F8C3120741
:1000960083501CAE1AAF1BE4FCFD0BF8120B4D741B
:1000A600CF2FF582740C3EF583E493F4FD80027D38
:1000B600FF7F02120025D3E51B940FE51A94274013
:1000C60033AE1AAF1BE4FCFD7BA07A867901F812E9
:1000D6000B4DAC00AD01AE02AF03E47B107A27F9FD
:1000E600F8120B4D74CF2FF582740C3EF583E49312
:1000F600F4FD80027DFF7F03120025D3E51B94E704
:10010600E51A94034028AE1AAF1B7C277D10120710
:100116002E7E037FE8CFCDCFCECCCE12072E74CF66
:100126002FF582740C3EF583E493F4FD80027DFF87
:100136007F04120025D3E51B9463E51A940040283A
:10014600AE1AAF1B7C037DE812072E7E007F64CFBC
:10015600CDCFCECCCE12072E74CF2FF582740C3EA7
:10016600F583E493F4FD80027DFF7F05120025D31D
:10017600E51B9409E51A94004028AE1AAF1B7C00D3
:100186007D6412072E7E007F0ACFCDCFCECCCE1255
:10019600072E74CF2FF582740C3EF583E493F4FD9D
:1001A60080027DFF7F06120025AE1AAF1B0203B048
:1001B600E4F522AE1AAF1BFC7D6412072ED3ED9434
:1001C60032EC940040057522018003E4F5227D8E11
:1001D600E4FF1200257DFF7F011200257F02120039
:1001E600257F03120025AE1AAF1B7C007D64120723
:1001F6002ED3EF94E7EE9403402D7C00EF2522FFEB
:10020600EC3EFE7C277D1012072E7E037FE8CFCDC5
:10021600CFCECCCE12072E74CF2FF582740C3EF5BE
:1002260083E493F4FD80027DFF7F04120025AE1A5D
:10023600AF1B7C007D6412072ED3EF9463EE94000F
:10024600402D7C00EF2522FFEC3EFE7C037DE8126C
:10025600072E7E007F64CFCDCFCECCCE12072E7474
:10026600CF2FF582740C3EF583E493F4FD80027D76
:10027600FF7F05120025AE1AAF1B7C007D641207B6
:100286002ED3EF9409EE940040277C00EF2522FF41
:10029600EC3EFE7D6412072E7E007F0ACFCDCFCEC8
:1002A600CCCE12072E74DF2FF582740C3EF58380B8
:1002B60003900CDFE493F4FD7F06120025AE1AAF1F
:1002C6001B7C007D6412072E7C00EF2522FFEC3E8E
:0102D600FE29
:1002D7000204B5E51C640270367D89FF1200257D96
:1002E700FF7F011200251200197F05120025E51F67
:1002F700D39409400EE51F75F00A84900CCF93F450
:10030700FD80027DFF7F06120025E51F0204FAE546
:100317001C640360030204147D88FF1200257DFF1F
:100327007F01120025120019E50F64016003020323
:10033700B5D3E5169463E51594004028AE15AF16BE
:100347007C037DE812072E7E007F64CFCDCFCECC15
:10035700CE12072E74CF2FF582740C3EF583E493EB
:10036700F4FD80027DFF7F05120025D3E516940971
:10037700E51594004028AE15AF167C007D64120782
:100387002E7E007F0ACFCDCFCECCCE12072E74CFD4
:100397002FF582740C3EF583E493F4FD80027DFF14
:1003A7007F06120025AE15AF167C000204B5AE1508
:1003B700AF167C037DE812072E7E007F64CFCDCF7A
:1003C700CECCCE12072E74DF2FF582740C3EF58348
:1003D700E493F4FD7F05120025AE15AF167C007D72
:1003E7006412072E7E007F0ACFCDCFCECCCE120768
:1003F7002E74CF2FF582740C3EF583E493F4FD7FC2
:1004070006120025AE15AF167C000204B5E5106490
:100417000160030204C57D8CFF120025900CD012E9
:10042700000EAE12AF137C007D6412072ED3EF943B
:1004370063EE940040247C037DE812072E7E007F44
:1004470064CFCDCFCECCCE12072E74CF2FF58274CA
:100457000C3EF583E493F4FD80027DFF7F051200D7
:1004670025AE12AF137C007D6412072ED3EF9409DB
:10047700EE940040207C007D6412072E7E007F0AE8
:10048700CFCDCFCECCCE12072E74DF2FF582740CD2
:100497003EF5838003900CDFE493F4FD7F061200A2
:1004A70025AE12AF137C007D6412072E7C007D0AF7
:1004B70012072E74CF2DF582740C3C020562E510ED
:1004C7006402703A7D8CFF120025900CD112000E49
:1004D7007F05120025E518D39409400EE51875F03D
:1004E7000A84900CCF93F4FD80027DFF7F061200F3
:1004F70025E51875F00A84E5F0900CCF80607D8CB7
:10050700E4FF120025900CD212000E7F0512002581
:10051700AE0AAF0B7C037DE812072E7E007F64CF07
:10052700CDCFCECCCE12072E74DF2FF582740C3EC2
:10053700F583E493F4FD7F06120025AE0AAF0B7C2A
:10054700007D6412072E7E007F0ACFCDCFCECCCEA2
:1005570012072E74CF2FF582740C3EF583E493F4C3
:07056700FD7F0712002522B1
:100BD100D3E516950BE515950A401D4320107F05B9
:100BE100120ACF852080E4FF120ACFE50CB4011B65
:100BF1000511E4F50C020C945320EF7F05120ACF86
:0C0C0100852080E4FF120ACF750C012250
:10086700E51CB401055319FE8028E51C6404701FBC
:10087700E51064017019E517C394C84018E4F5172B
:10088700E51920E00543190180035319FE8003434E
:100897001901120AC5E51CB402055319FD8028E5A4
:1008A7001C6404701FE51064027019E517C394C82F
:1008B7004018E4F517E51920E105431902800353B1
:1008C70019FD8003431902120AC5E51CB403055339
:1008D70019FB8028E51C6404701FE5106403701978
:1008E700E517C394C84018E4F517E51920E2054356
:1008F700190480035319FB8003431904120AC5D353
:10090700E51B9513E51A951240055319F780034324
:100917001908120AC5E51FD3951840055319EF802A
:1009270003431910120AC5D3E516950BE515950A69
:0E09370040055319DF8003431920120AC52220
:100D4900D3E51B9513E51A95124004750D04227518
:030D59000D012267
:10056E0030B00302061F7F6412000330B003020690
:10057E001FE51CB4011BE50EB40105750E028003C8
:10058E00750E0130B00302061F1200661209D180EB
:10059E00F2E51CB40217E4F511120C941209D112F3
:1005AE00006620B06C1200661209D180F5E51C645D
:1005BE0004705EE510B40121D3E51394E8E51294BE
:1005CE0003400E740C2513F51374FE3512F51280CC
:1005DE004075122E7513E08038E510B40214E5183C
:1005EE00D3940A400874F62518F518802475183C23
:1005FE00801FD3E50B940AE50A9400400E74F6258D
:10060E000BF50B74FF350AF50A8006750A00750B9B
:10061E007830B1030206B27F6412000330B10302D8
:10062E0006B2E51CB4030FE50FB40105750F028089
:10063E0068750F018063E51C6404705DE510B401FC
:10064E0021C3E51394E0E512942E500E74F4251395
:10065E00F51374013512F512803F7512037513E808
:10066E008037E510B40214E518C3943C5008740AA0
:10067E002518F518802375180A801EC3E50B94788B
:10068E00E50A9400500D740A250BF50BE4350AF5B6
:10069E000A8006750A00750B0A20B1081200661250
:1006AE0009D180F520B22F7F6412000320B227E516
:1006BE001CB40417E510B40105751002800DE51089
:1006CE00B40205751003800375100120B2081200E4
:1006DE00661209D180F520B3347F6412000320B373
:1006EE002CE51CB40105751C028017E51CB402052F
:1006FE00751C03800DE51CB40305751C0480037581
:0E070E001C0120B3081200661209D180F522EA
:0F0C0D00120D34120D91120D5C120D04120C69B0
:100C1C0075210A120B09AF211521EF60F312086739
:100C2C00120D491200661209D1120BD112056E80F9
:010C3C00E5D2
:040CEA00D2A07F0510
:100CEE00000000000000000000000000000000AE48
:060CFE00071FEE70EB225F
:0F005400D2A1120CEAC2A17F05120CEEC2A022AB
:0C0DAE00C2A1120CEAD2A17F05020CEEDB
:020C3D00AD0701
:100C3F00E4FCC2A07F05120CEEED30E704D2A180D8
:100C4F0002C2A17F05120CEED2A0ED25E0FD7F05BB
:090C5F00120CEE0CBC08DBC2A073
:010C68002269
:100CB200E4FC120CEAED25E0FD30A103430501C27C
:0C0CC200A07F05120CEE0CBC08E8AF058A
:010CCE002203
:100D6E00120CEAA2A1E433FDC2A07F05120CEEAF75
:010D7E00056F
:010D7F002251
:100D1C00C2A0EF24FF92A17F05120CEE120CEAC2C6
:080D2C00A0D2A17F05020CEE2C
:03000000020945AD
:0C094500787FE4F6D8FD75812202098C51
:10071C00EF8DF0A4A8F0CF8CF0A428CE8DF0A42EF1
:02072C00FE22AB
:10072E00BC000BBE0029EF8DF084FFADF022E4CCAF
:10073E00F875F008EF2FFFEE33FEEC33FCEE9DEC78
:10074E00984005FCEE9DFE0FD5F0E9E4CEFD22EDBE
:10075E00F8F5F0EE8420D21CFEADF075F008EF2F08
:10076E00FFED33FD4007985006D5F0F222C398FDF9
:05077E000FD5F0EA2296
:100B4D00C2D5E830E70FB2D5E4C39BFBE49AFAE4D3
:100B5D0099F9E498F8EC30E717B2D5120B83120728
:100B6D00D5E4C39BFBE49AFAE499F9E498F8800381
:100B7D001207D530D50DE4C39FFFE49EFEE49DFD25
:040B8D00E49CFC22C6
:10078300EB9FF5F0EA9E42F0E99D42F0EC6480C8ED
:0607930064809845F0228D
:10095100020C0DE493A3F8E493A34003F68001F2A3
:1009610008DFF48029E493A3F85407240CC8C333A7
:10097100C4540F4420C8834004F456800146F6DF76
:10098100E4800B0102040810204080900B91E47E6A
:10099100019360BCA3FF543F30E509541FFEE4936B
:1009A100A360010ECF54C025E060A840B8E493A332
:1009B100FAE493A3F8E493A3C8C582C8CAC583CA5D
:1009C100F0A3C8C582C8CAC583CADFE9DEE780BE15
:010BD0000024
:1007990075F008758200EF2FFFEE33FECD33CDCC17
:1007A90033CCC58233C5829BED9AEC99E58298409A
:1007B9000CF582EE9BFEED9AFDEC99FC0FD5F0D677
:1007C900E4CEFBE4CDFAE4CCF9A88222B800C1B9A1
:1007D9000059BA002DEC8BF084CFCECDFCE5F0CBDF
:1007E900F97818EF2FFFEE33FEED33FDEC33FCEB18
:1007F90033FB10D703994004EB99FB0FD8E5E4F9D3
:10080900FA227818EF2FFFEE33FEED33FDEC33FCBF
:10081900C933C910D7059BE99A4007EC9BFCE99AB3
:10082900F90FD8E0E4C9FAE4CCFB2275F010EF2FF8
:10083900FFEE33FEED33FDCC33CCC833C810D707F8
:100849009BEC9AE899400AED9BFDEC9AFCE899F833
:0E0859000FD5F0DAE4CDFBE4CCFAE4C8F922C6
:00000001FF
