:100817003F065B4F666D7D077F6F777C395E797129
:0A082700BF86DBCFE6EDFD87FFEF93
:1007D9000214000002160000020800FA020A012CA5
:1007E90002120001020C0001020E000002100000BA
:10071F00EF603224FB601314601914601F24037000
:10072F0027E5A0541F4480F5A022E5A0541F44A044
:10073F00F5A022E5A0541F44C0F5A022E5A0541F48
:09074F0044E0F5A02253A01F2292
:100831007F0412071F7580FF0F12071FE4F5807FE9
:080841000712071F7580FF225A
:1007B400AE077F0712071F7580FF1F12071FAF06C2
:1007C4007401A807088002C333D8FCF5807F0712A0
:0507D400071F8D8022CB
:1005FD001208717F901207881208607F0112078818
:10060D0012086012089A1208717F91120788120859
:10061D00601207FA7516008F17AC16AD17EC1201A4
:10062D000E7BFC7AFA79FA783F1200031201478E9D
:10063D00168F17D20012084912089A1208717F906E
:10064D001207881208607F031207881208601208CB
:10065D009A1208717F911207881208601207FA75B5
:10066D0014008F15AC14AD15EC12010E7BFC7AFA4B
:10067D0079FA783F1200031201478E148F15D200BC
:06068D0012084902089A60
:100758007C007D641201DA7E007F0ACFCDCFCECC3B
:10076800CE1201DA74172FF58274083EF5837F06DE
:09077800E493F4FD1207B47FF4D0
:07078100AE071FEE70FA2223
:10027300E50D6401450C600302030A1205FD7DC10F
:10028300E4FF12077C74172513F58274083512F501
:10029300837F011207787DFF7F0212077C7F0312A1
:1002A300077C7F0412077CE51364014512702AAEB4
:1002B30014AF15FC7D641201DA74272FF5827408DC
:1002C3003EF583E493F4FD7F0512077CAE14AF156E
:1002D300120758AE14AF158029AE16AF177C007DF8
:1002E300641201DA74272FF58274083EF583E493D0
:1002F300F4FD7F0512077CAE16AF17120758AE1632
:10030300AF177C000203E91205FD7D8CE4FF1207A1
:100313007C74172513F58274083512F583E493F47E
:10032300FD7F0112077C7DFF7F0212077C7F031292
:10033300077C7F0412077CE513640145127053AEFA
:100343000EAF0FFC7D141201C8E5092FFFE5083E2F
:10035300FE7D641201DA74272FF58274083EF5835B
:10036300E493F4FD7F0512077CAE0EAF0F7C007D96
:10037300141201C8E5092FFFE5083EFE12075AAE25
:100383000EAF0F7C007D141201C8E5092FFFE508AD
:100393008052AE10AF117C007D141201C8E50B2F03
:1003A300FFE50A3EFE7D641201DA74272FF582749D
:1003B300083EF583E493F4FD7F0512077CAE10AF8E
:1003C300117C007D141201C8E50B2FFFE50A3EFEE8
:1003D30012075AAE10AF117C007D141201C8E50B51
:1003E3002FFFE50A3EFE7D0A1201DA74172DF5820E
:0F03F30074083CF583E493F4FD7F0712077C2226
:0708A600AE071FEE70FA22FD
:100562007F0412071FD3E5159509E5086480F8E5B5
:1005720014648098E58054FE400644E0F5808004CF
:1005820044E1F580D3E517950BE50A6480F8E5169A
:10059200648098E58054FD400644E0F58080044480
:1005A200E2F580E51364014512700AE58054FB44CC
:1005B200E0F5808008E58054FB44E4F580E50D64B5
:1005C20001450C700AE58054F744E0F5808008E5A7
:1005D2008054F744E8F580D3E5159517E516648055
:1005E200F8E514648098E58054EF400644E0F58015
:0B05F200800444F0F5807F600208A642
:1004020020B3257F641208A620B31DE513640145BD
:10041200127007F512751303800675120075130129
:1004220020B30512027380F820B2547F641208A62A
:1004320020B24CE50D6401450C7007F50C750D02F8
:100442008035750C00750D01AE0EAF0F7C007D146A
:100452001201C8EF2509F509EE3508F508AE10AF0F
:10046200111201C8EF250BF50BEE350AF50AE4F57A
:100472000EF50FF510F51120B20512027380F82067
:10048200B16D7F641208A620B165E50D6402450CCA
:100492007055E513640145127027AE0EAF0FFC7D57
:1004A200141201C8E5092FFFE5083EFED3EF94E0E0
:1004B200EE648094815030050FE50F702A050E809E
:1004C20026AE10AF117C007D141201C8E50B2FFF80
:1004D200E50A3EFED3EF94E0EE6480948150080575
:1004E20011E5117002051020B10512027380F82087
:1004F200B06D7F641208A620B065E50D6402450C5C
:100502007055E513640145127027AE0EAF0FFC7DE6
:10051200141201C8E5092FFFE5083EFEC3EF94144B
:10052200EE648094804030E50F150F702A150E801E
:1005320026AE10AF117C007D141201C8E50B2FFF0F
:10054200E50A3EFEC3EF9414EE648094804008E511
:100552001115117002151020B00512027380F822D5
:0E08800012083112056212027312040280F592
:04088E00D2A07F0570
:0808920000AE071FEE70F92211
:0F087100D2A112088EC2A17F05120892C2A02246
:0C089A00C2A112088ED2A17F05020892B4
:10084900C2A0A20092A17F0512089212088EC2A02E
:07085900D2A17F0502089205
:1008600012088EA2A19200C2A07F05120892A200D7
:010870002265
:02078800AD07BB
:10078A00E4FCC2A07F05120892ED30E704D2A180F2
:10079A0002C2A17F05120892D2A0ED25E0FD7F05D5
:0907AA001208920CBC08DBC2A08D
:0107B3002223
:1007FA00E4FC12088EED25E0FD30A103430501C299
:0C080A00A07F051208920CBC08E8AF05A6
:0108160022BF
:10000300EC4D6011E8497017ED33EC3304600DE4F7
:10001300FCFFFEFD22E933E8330470F80201B3125A
:10002300017E58046009E4CC24815006285009025B
:1000330001BD2840030201BAC0E0EB4A7044B98015
:1000430006D0E0FB0201A9EF4E701CBD8008EBFF58
:10005300EAFEE9FD80EBE98DF0A4FEE5F00200EC99
:10006300E9CDF9EAFEEBFFEF89F0A4FCE5F0CE89D8
:10007300F0A42EFFE435F0CD89F0A42DFEE435F095
:100083008067EF4E7005BD80D780C3EF8BF0A4ACC3
:10009300F0EE8BF0A42CFCE435F0F8EF8AF0A42CFE
:1000A300E5F038FCE433CB8DF0A42CFCE5F03BF811
:1000B300EE8AF0A42CFCE5F038F8E433CF89F0A401
:1000C3002CFCE5F038CF3400CE89F0A42FFFE5F007
:1000D3003EFEE433C98DF0A42EFEE5F039CD8AF05F
:1000E300A42FFFE5F03EFEE43DFD33D0E0FB5007D7
:1000F3000BBB000F0201BDEC2CFCEF33FFEE33FE14
:06010300ED33FD02019541
:1001090075F020800E75F010800575F0087D007E71
:10011900007F003392D530D503120210EC33401022
:10012900EF33FFEE33FEED33FDEC33FCD5F0ED227A
:0E013900E5F0247EA2D513CC92E7CDCEFF22B6
:10014700EDD2E7CD33EC3392D524814006E4FFFEB0
:10015700FDFC22FCE4CFCECDCC24E0501174FF800F
:10016700EDC3CC13CCCD13CDCE13CECF13CF0470AC
:07017700F030D5DE0202109A
:10017E00E9D2E7C933E833F892D5EDD2E7CD33ECC7
:07018E0033FC5002B2D52240
:10019500EC30E7100FBF000C0EBE00080DBD0004CB
:1001A5000BEB6014A2D5EB13FCED92E7FD2274FF77
:1001B500FCFDFEFF22E480F8A2D574FF13FC7D80D0
:0301C500E480EFE4
:0300000002069362
:0C069300787FE4F6D8FD7581200206DABD
:1001C800EF8DF0A4A8F0CF8CF0A428CE8DF0A42E4B
:0201D800FE2205
:1001DA00C2D5EC30E709B2D5E4C39DFDE49CFCEE40
:1001EA0030E715B2D5E4C39FFFE49EFE12021EC398
:1001FA00E49DFDE49CFC800312021E30D507C3E493
:06020A009FFFE49EFE22AE
:0E021000C3E49FFFE49EFEE49DFDE49CFC22FF
:10069F00020880E493A3F8E493A34003F68001F2E9
:1006AF0008DFF48029E493A3F85407240CC8C3335C
:1006BF00C4540F4420C8834004F456800146F6DF2B
:1006CF00E4800B01020408102040809007D9E47EDB
:1006DF00019360BCA3FF543F30E509541FFEE49320
:1006EF00A360010ECF54C025E060A840B8E493A3E7
:1006FF00FAE493A3F8E493A3C8C582C8CAC583CA12
:10070F00F0A3C8C582C8CAC583CADFE9DEE780BEC9
:0107F90000FF
:10021E00BC000BBE0029EF8DF084FFADF022E4CCC4
:10022E00F875F008EF2FFFEE33FEEC33FCEE9DEC8D
:10023E00984005FCEE9DFE0FD5F0E9E4CEFD22EDD3
:10024E00F8F5F0EE8420D21CFEADF075F008EF2F1D
:10025E00FFED33FD4007985006D5F0F222C398FD0E
:05026E000FD5F0EA22AB
:00000001FF
