:10059B003F065B4F666D7D077F6F777C395E7971A8
:1005050002140000010D01010801020B001E020981
:100515000014020E00000210000001120001130079
:10047F00EF24FB601314601914601F24037023E52D
:10048F00A0541F4480F5A022E5A0541F44A0F5A05E
:10049F0022E5A0541F44C0F5A022E5A0541F44E05C
:0304AF00F5A02293
:10055E007F0412047F7580FF0F12047FE4F5807F05
:08056E000712047F7580FF22D3
:0405AB007F647E00EB
:0B05AF00EF1FAC0670011E4C70F6221E
:10044100120355749B2FF58274053EF583E493F4F2
:03045100FD7F0626
:10045400AE077F0712047F7580FF1F12047FAF066B
:100464007401A807088002C333D8FCF5807F071203
:0B047400047F8D807FDC7E050205AF59
:10016800E50D640170407DC6FF1204547DFF7F01D8
:100178001204547F021204547F031204547F0412A1
:1001880004547F05120454AE14AF157C007D64122C
:1001980003557E007F0ACFCDCFCECCCE120441AE20
:1001A80014AF1502022B7D8CE4FF1204547DFF7FEF
:1001B800011204547F02120454E50C2511FFE50BCB
:1001C8003510FE7C007D0A120355749B2FF582744E
:1001D800053EF583E493F4FD7F03120454E50C25F2
:1001E80011FFE50B3510FE7C007D0A120355749B48
:1001F8002DF58274053CF583E493F4FD7F04120425
:10020800547DFF7F05120454E50A250FFFE50935E3
:100218000EFE7C007D0A120441E50A250FFFE50960
:10022800350EFE7C007D0A120355749B2DF58274F1
:10023800053CF583E493F4FD7F071204547F07120D
:06024800047F7580FF2217
:1003F9001204DE7FCC1205267F441205261204DE84
:100409007FCC1205267FBE1205261205448F1712CE
:1004190005448F161204DE751400851615E515F5C9
:1004290014E517F515E514C4F854F0C868F514E592
:0704390015C4540F48F5152E
:010440002299
:1000030020B35B1205AB20B355E50DB40105750DA7
:10001300028043750D01E50C2511FFE50B3510FE3C
:10002300E50A250FFDE509350EFCD3ED9FEC9E5047
:1000330018E50F250AF50AE50E3509F509E5112539
:100043000CF50CE510350BF50BE4F50EF50FF5107B
:10005300F511F512F51320B30512016880F820B2EB
:100063001B1205AB20B215E508B401057508028023
:100073000375080120B20512016880F820B17512DA
:1000830005AB20B16FE508B4011FE50A250FFFE5B5
:1000930009350EFEEF64634E7002801DE4F5120510
:1000A3000FE50F7024050E8020E50C2511FFE50BED
:1000B3003510FEEF64634E7005751201800BE4F595
:1000C300120511E51170020510E50C2511FFE50B72
:1000D3003510FEE50A250FFDE509350EFCD3ED9F2E
:1000E300EC9E40057513018003E4F51320B105125E
:1000F300016880F820B06D1205AB20B067E508B445
:10010300011BE50A250FFFE509350E4F7002801923
:10011300E4F512E50F150F7020150E801CE50C2574
:1001230011FFE50B35104F7005751201800BE4F5D7
:1001330012E511151170021510E50C2511FFE50BE1
:100143003510FEE50A250FFDE509350EFCD3ED9FBD
:10015300EC9E40057513018003E4F51320B00512EE
:05016300016880F82294
:1002DA00D3E515950CE514950B7F04400812047FAD
:1002EA005380FE800612047F438001D3E515950CE6
:1002FA00E514950B5015C3E515950AE514950940C3
:10030A000A7F0412047F5380FD80087F0412047F51
:10031A00438002C3E515950AE51495097F04500840
:10032A0012047F5380FB800612047F438004E51287
:10033A0064016005E513B401097F0412047F538048
:0B034A00F7227F0412047F438008228A
:1003AA00E4F516F5171205BA7F901204B212058AFF
:1003BA007F401204B212058AD3E515950CE514950F
:1003CA000B40087516007517CC8019C3E515950AF8
:1003DA00E514950950087516007517668006751696
:0F03EA0000751799AF171204B212058A0205E4C5
:1005760012055E1203AA1203F91201681200031291
:0405860002DA80EF26
:0405D800D2A07F0529
:0805DC0000AE071FEE70F922CA
:0F05BA00D2A11205D8C2A17F051205DCC2A02272
:0C05E400C2A11205D8D2A17F050205DCDF
:10058A001205D8A2A19200C2A07F051205DCA20022
:01059A00223E
:0204B200AD0794
:1004B400E4FCC2A07F051205DCED30E704D2A18084
:1004C40002C2A17F051205DCD2A0ED25E0FD7F0567
:0904D4001205DC0CBC08DBC2A01F
:0104DD0022FC
:0405C9007F327E00FF
:0B05CD00EF1FAC0670011E4C70F62200
:02052600AD071F
:10052800E4FBC294ED1392941205C9D294EDC3135F
:0C053800FD0BBB08ED7F327E000205CDFC
:10054400E4FBC294EDC313FDD294309403430580BD
:090554001205C90BBB08EBAF0551
:01055D00227B
:1004DE00C200D2947F787E001205CDC2947F207E1A
:1004EE00031205CDD2947F647E001205CDA29492A4
:0604FE00001205C9A20076
:0105040022D4
:0300000002024EAB
:0C024E00787FE4F6D8FD7581200202954F
:10035500BC000BBE0029EF8DF084FFADF022E4CC8C
:10036500F875F008EF2FFFEE33FEEC33FCEE9DEC55
:10037500984005FCEE9DFE0FD5F0E9E4CEFD22ED9B
:10038500F8F5F0EE8420D21CFEADF075F008EF2FE5
:10039500FFED33FD4007985006D5F0F222C398FDD6
:0503A5000FD5F0EA2273
:10025A00020576E493A3F8E493A34003F68001F23F
:10026A0008DFF48029E493A3F85407240CC8C333A5
:10027A00C4540F4420C8834004F456800146F6DF74
:10028A00E4800B0102040810204080900505E47EFA
:10029A00019360BCA3FF543F30E509541FFEE49369
:1002AA00A360010ECF54C025E060A840B8E493A330
:1002BA00FAE493A3F8E493A3C8C582C8CAC583CA5B
:1002CA00F0A3C8C582C8CAC583CADFE9DEE780BE13
:0105250000D5
:00000001FF
