:100824003F065B4F666D7D077F6F777C395E79711C
:0B083400BF86DBCFE6EDFD87FFEF463F
:10087100020C0000010F01010819010E000109011C
:07088100020A00000110FF54
:10078000EF24FB601314601914601F24037023E529
:10079000A0541F4480F5A022E5A0541F44A0F5A05A
:1007A00022E5A0541F44C0F5A022E5A0541F44E058
:0307B000F5A0228F
:100859007F041207807580FF0F120780E4F5807FFF
:08086900071207807580FF22D1
:0708E400AE071FEE70FA22BF
:10074500FF1207577DFF7F011207577F02120757D8
:020755007F0320
:10075700AE077F071207807580FF1F120780AF065D
:100767007401A807088002C333D8FCF5807F0712FD
:0907770007808D807FF40208E484
:1005F600E4F511F5121207DF7FCC1208067F4412CC
:1006060008061207DF7FCC1208067FBE1208061204
:10061600083F8F1112083F8F121207DF750C0085F5
:10062600120DE50DF50CE511F50D540FFCE4120263
:100636000BE4FBFA79C878401200FBC004C005C081
:1006460006C007E50CC4F854F0C868FEE50DC454AE
:100656000F48FF7C007D641202C0AC06AD07E412B1
:100666000206D003D002D001D00012000A12023FC7
:040676008E0C8F0D4A
:01067A00225D
:10036B00E50F640160030204067DC6120745AE0C5F
:10037B00AF0D7C037DE81202D274242FF582740832
:10038B003EF583E493F4FD7F04120757AE0CAF0DDB
:10039B007C037DE81202D27E007F64CFCDCFCECC22
:1003AB00CE1202D274342FF58274083EF583E49397
:1003BB00F4FD7F05120757AE0CAF0D7C007D641268
:1003CB0002D27E007F0ACFCDCFCECCCE1202D2741A
:1003DB00242FF58274083EF583E493F4FD7F061217
:1003EB000757AE0CAF0D7C007D0A1202D274242D80
:1003FB00F58274083CF583E402049AE50F640270FD
:10040B00537D8C1207457F041207577F0512075740
:10041B007E00E50B2508FFEE350AFE7C007D0A12F7
:10042B00032774242FF58274083EF583E493F4FDBF
:10043B007F061207577E00E50B2508FFEE350AFEF7
:10044B007C007D0A12032774242DF58274083CF579
:10045B0083E4803B7D88E41207457F04120757E550
:10046B000E75F0648490083493F4FD7F05120757E2
:10047B00E50E75F06484E5F075F00A84900824931A
:10048B00F4FD7F06120757E50E75F00A84E5F0932D
:10049B00F4FD7F071207577F071207807580FF2235
:0306EC0012036B8B
:1006EF001208AE7F901207B312089D7F401207B316
:1006FF0012089DE509B40113C3E50D9508E50C94A7
:10070F00005004E4FF80267FFF8022D3E50D94D0B4
:10071F00E50C940750047F338013D3E50D94A0E5C7
:10072F000C940F40047FCC80047F9A7EFF1207B396
:06073F0012089D0208D81B
:10067B00E5097F04B4010A120780851080C28080CF
:10068B0008120780851080D280858010E50F7F04CB
:10069B00B4010A120780851080C28180081207807E
:1006AB00851080D281858010E50F7F04B4020A1279
:1006BB000780851080C2828008120780851080D247
:1006CB0082858010E50F7F04B4030A120780851022
:1006DB0080C2838008120780851080D283858010AA
:0106EB0022EC
:1004AB00C2C4D2B2D2B3D2C220B3337F641208E437
:1004BB0020B32BE50FB40105750F028013E50FB4C4
:1004CB00020B750F03E50B2508F5088003750F016B
:1004DB0020B30B1205F61206EC12067B80F220B24B
:1004EB00237F641208E420B21BE509B401057509EA
:1004FB0002800375090120B20B1205F61206EC12ED
:10050B00067B80F2C2C2D2B2D2B3D2C420B3267F52
:10051B00641208E420B31EE50FB40208E50B150BBB
:10052B007002150A20B30E1205F612036B1206EFBA
:10053B0012067B80EF20B2267F641208E420B21EE5
:10054B00E50FB40208050BE50B7002050A20B20E8D
:0F055B001205F612036B1206EF12067B80EF22D9
:100889001208591205F612036B1204AB1206EF1285
:04089900067B80EF6B
:0408CC00D2A07F0532
:0808D00000AE071FEE70F922D3
:0F08AE00D2A11208CCC2A17F051208D0C2A0228D
:0C08D800C2A11208CCD2A17F050208D0FA
:10089D001208CCA2A19200C2A07F051208D0A2001E
:0108AD002228
:0207B300AD0790
:1007B500E4FCC2A07F051208D0ED30E704D2A18089
:1007C50002C2A17F051208D0D2A0ED25E0FD7F056C
:0907D5001208D00CBC08DBC2A024
:0107DE0022F8
:0408BD007F327E0008
:0B08C100EF1FAC0670011E4C70F62209
:02080600AD073C
:10080800E4FBC294ED1392941208BDD294EDC31385
:0C081800FD0BBB08ED7F327E000208C122
:10083F00E4FBC294EDC313FDD294309403430580BF
:09084F001208BD0BBB08EBAF055C
:01085800227D
:1007DF00C200D2947F787E001208C1C2947F207E1F
:1007EF00031208C1D2947F647E001208C1A29492B2
:0607FF00001208BDA2007B
:0108050022D0
:100003000202ABE86480F8E933E83360110460F07E
:10001300ED33EC337009E8FCE9FDEAFEEBFF220463
:1000230060DED3EB9FEA9EE99DE8C2E78CF0C2F75E
:1000330095F0400CE8CCF8E9CDF9EACEFAEBCFFB2A
:1000430012027685D0F05804700320D5B3E804700B
:10005300075002B2D50202B592D5EC0460F7E4CCA6
:10006300C0E0C398F8603B94186008400DD0E0FBF3
:1000730002028DE4FBFAC9FC8028E830E406E4C9F7
:10008300FBE4CAFCE830E305E4C9CACBFCE8540747
:100093006010F8C3E913F9EA13FAEB13FBEC13FC52
:1000A300D8F130F52FC3E49CFCEF9BFFEE9AFEEDF5
:1000B30099FDD0E0FBEF4E4D4C701222DB030202A0
:1000C300B2EC2CFCEF33FFEE33FEED33FDED30E706
:1000D300EB02028DEF2BFFEE3AFEED39FDD0E0FB94
:1000E30050130BBB00030202B5ED13FDEE13FEEF3D
:0800F30013FFEC13FC02028D67
:1000FB00EC4D6011E8497017ED33EC3304600DE4FF
:10010B00FCFFFEFD22E933E8330470F80202AB1268
:10011B00027658046009E4CC248150062850090269
:10012B0002B52840030202B2C0E0EB4A7044B9802A
:10013B0006D0E0FB0202A1EF4E701CBD8008EBFF66
:10014B00EAFEE9FD80EBE98DF0A4FEE5F00201E4A7
:10015B00E9CDF9EAFEEBFFEF89F0A4FCE5F0CE89DF
:10016B00F0A42EFFE435F0CD89F0A42DFEE435F09C
:10017B008067EF4E7005BD80D780C3EF8BF0A4ACCA
:10018B00F0EE8BF0A42CFCE435F0F8EF8AF0A42C05
:10019B00E5F038FCE433CB8DF0A42CFCE5F03BF818
:1001AB00EE8AF0A42CFCE5F038F8E433CF89F0A408
:1001BB002CFCE5F038CF3400CE89F0A42FFFE5F00E
:1001CB003EFEE433C98DF0A42EFEE5F039CD8AF066
:1001DB00A42FFFE5F03EFEE43DFD33D0E0FB5007DE
:1001EB000BBB000F0202B5EC2CFCEF33FFEE33FE22
:0601FB00ED33FD02028D50
:1002010075F020800E75F010800575F0087D007E78
:10021100007F003392D530D50312035DEC334010DB
:10022100EF33FFEE33FEED33FDEC33FCD5F0ED2281
:0E023100E5F0247EA2D513CC92E7CDCEFF22BD
:10023F00EDD2E7CD33EC3392D524814006E4FFFEB7
:10024F00FDFC22FCE4CFCECDCC24E0501174FF8016
:10025F00EDC3CC13CCCD13CDCE13CECF13CF0470B3
:07026F00F030D5DE02035D53
:10027600E9D2E7C933E833F892D5EDD2E7CD33ECCE
:0702860033FC5002B2D52247
:10028D00EC30E7100FBF000C0EBE00080DBD0004D2
:10029D000BEB6014A2D5EB13FCED92E7FD2274FF7E
:1002AD00FCFDFEFF22E480F8A2D574FF13FC7D80D7
:0302BD00E480EFEB
:0300000002056A8C
:0C056A00787FE4F6D8FD7581200205B111
:1002C000EF8DF0A4A8F0CF8CF0A428CE8DF0A42E52
:0202D000FE220C
:1002D200BC000BBE0029EF8DF084FFADF022E4CC10
:1002E200F875F008EF2FFFEE33FEEC33FCEE9DECD9
:1002F200984005FCEE9DFE0FD5F0E9E4CEFD22ED1F
:10030200F8F5F0EE8420D21CFEADF075F008EF2F68
:10031200FFED33FD4007985006D5F0F222C398FD59
:050322000FD5F0EA22F6
:10032700C2D5EC30E709B2D5E4C39DFDE49CFCEEF1
:1003370030E715B2D5E4C39FFFE49EFE1202D2C395
:10034700E49DFDE49CFC80031202D230D507C3E490
:060357009FFFE49EFE2260
:0E035D00C3E49FFFE49EFEE49DFDE49CFC22B1
:10057600020889E493A3F8E493A34003F68001F20A
:1005860008DFF48029E493A3F85407240CC8C33386
:10059600C4540F4420C8834004F456800146F6DF55
:1005A600E4800B0102040810204080900871E47E6C
:1005B600019360BCA3FF543F30E509541FFEE4934A
:1005C600A360010ECF54C025E060A840B8E493A311
:1005D600FAE493A3F8E493A3C8C582C8CAC583CA3C
:1005E600F0A3C8C582C8CAC583CADFE9DEE780BEF4
:01088800006F
:00000001FF
