:100C24003F065B4F666D7D077F6F777C395E797118
:0B0C3400BF86DBCFE6EDFD87FFEF463B
:100B7D000215000002120000010800010F01020B16
:100B8D00000002090000010E010217000002100012
:0A0B9D00000114010119FF010D0011
:040B17007F047E00D9
:100B1B00EE7032EF24FB601314601914601F240372
:100B2B007023E5A0541F4480F5A022E5A0541F4478
:100B3B00A0F5A022E5A0541F44C0F5A022E5A054C7
:060B4B001F44E0F5A022AA
:100C6E00120B177580FF0F120B1BE4F5807F071216
:060C7E000B1B7580FF2234
:07000300AE071FEE70FA22A8
:100A29007C007D6412072A7E007F0ACFCDCFCECC11
:100A3900CE12072A74242FF582740C3EF583E493B1
:040A4900F4FD7F0633
:100A4D00AC077F067E00120B1BAF047401A80708CC
:100A5D008002C333D8FCF5807F077E00120B1B8DFF
:100A6D00807FF41200037F077E00120B1B7580FF41
:010A7D002256
:100C3F00538E7F5389F0438904758AFF758CFFC2E9
:080C4F008DD28CD2AFD2A92294
:03000B0002000EE2
:0D000E00C0E00516E51670020515D0E032C1
:100C8400538EBF53890F758BB0758D3CC28FD28E36
:050C9400D2AFD2AB223B
:03001B00020BCB0A
:100BCB00C0E0C0D00508E508B4140F750800851502
:0F0BDB0012851613751500751600D0D0D0E032B4
:10006600E50F6401600302020F7D8EFF120A4DAE9A
:1000760012AF137C007D0A12072A74242DF58274B0
:100086000C3CF583E493F4FD7F07120A4DAE12AFE4
:1000960013E4FCFD7B3F7A42790FF8C312078D50BB
:1000A6001CAE12AF13E4FCFD0BF812001E74242FD5
:1000B600F582740C3EF583E493F4FD80027DFF7FA8
:1000C60001120A4DAE12AF13E4FCFD7B9F7A8679CE
:1000D60001F8C312078D5034AE12AF13E4FCFD7B5A
:1000E600407A42790FF812001EAC00AD01AE02AFA5
:1000F600037BA07A867901780012001E74242FF5FE
:1001060082740C3EF583E493F4FD80027DFF7F024A
:10011600120A4DD3E513940FE51294274033AE121D
:10012600AF13E4FCFD7BA07A867901F812001EACC1
:1001360000AD01AE02AF03E47B107A27F9F8120096
:100146001E74242FF582740C3EF583E493F4FD802F
:10015600027DFF7F03120A4DD3E51394E7E512945F
:10016600034028AE12AF137C277D1012072A7E03A8
:100176007FE8CFCDCFCECCCE12072A74242FF582BE
:10018600740C3EF583E493F4FD80027DFF7F041238
:100196000A4DD3E5139463E51294004028AE12AFDE
:1001A600137C037DE812072A7E007F64CFCDCFCE75
:1001B600CCCE12072A74242FF582740C3EF583E404
:1001C60093F4FD80027DFF7F05120A4DD3E513945B
:1001D60009E51294004028AE12AF137C007D64122C
:1001E600072A7E007F0ACFCDCFCECCCE12072A7447
:1001F600242FF582740C3EF583E493F4FD80027D92
:10020600FF7F06120A4D020553E50F6402600302E2
:1002160004B97DC8FF120A4DAE12AF13AB07AA068A
:10022600E4F9F87F407E427D0FFC12001EE47B0A53
:10023600FAF9F812001E74242BF582740C3AF58331
:10024600E493F4FD7F07120A4DAE12AF13AB07AA73
:1002560006E4F9F87F407E427D0FFC12001E7B3FCC
:100266007A42790F7800C312078D5030AE12AF1361
:10027600AB07AA06E4F9F87F407E427D0FFC120028
:100286001E7B407A42790F780012001E74242FF5E7
:1002960082740C3EF583E493F4FD80027DFF7F01BA
:1002A600120A4DAE12AF13AB07AA06E4F9F87F4067
:1002B6007E427D0FFC12001E7B9F7A8679017800B4
:1002C600C312078D5043AE12AF13AB07AA06E4194B
:1002D600F87F407E427D0FFC12001E7B407A4279F9
:1002E6000F780012001EAC00AD01AE02AF037BA07A
:1002F6007A867901780012001E74242FF582740C18
:100306003EF583E493F4FD80027DFF7F02120A4DE1
:10031600AE12AF13AB07AA06E4F9F87F407E427D22
:100326000FFC12001EE47B0F7A27F9F8C312078D23
:100336005041AE12AF13AB07AA06E4F87F407E42E7
:100346007D0FFC12001E7BA07A86790178001200D0
:100356001EAC00AD01AE02AF03E47B107A27F9F8BC
:1003660012001E74242FF582740C3EF583E493F478
:10037600FD80027DFF7F03120A4DAE12AF13AB075D
:10038600AA06E4F9F87F407E427D0FFC12001EE4C7
:100396007BE77A03F9F8C312078D5040AE12AF130C
:1003A600AB07AA06E4F87F407E427D0FFC12001ED2
:1003B600E47B107A27F9F812001EAC00AD01AE02FC
:1003C600AF03E47BE87A03F9F812001E74242FF5D4
:1003D60082740C3EF583E493F4FD80027DFF7F0476
:1003E600120A4DAE12AF13AB07AA06E4F9F87F4026
:1003F6007E427D0FFC12001EE47B63FAF9F8C312FD
:10040600078D503FAE12AF13AB07AA06E4F87F4044
:100416007E427D0FFC12001EE47BE87A03F9F81297
:10042600001EAC00AD01AE02AF03E47B64FAF9F83E
:1004360012001E74242FF582740C3EF583E493F4A7
:10044600FD80027DFF7F05120A4DAE12AF13AB078A
:10045600AA06E4F9F87F407E427D0FFC12001EE4F6
:100466007B09FAF9F8C312078D503EAE12AF13ABF3
:1004760007AA06E4F87F407E427D0FFC12001EE4C8
:100486007B64FAF9F812001EAC00AD01AE02AF03B0
:10049600E47B0AFAF9F812001E74242FF582740C14
:1004A6003EF583E493F4FD80027DFF7F06120A4D3C
:1004B6000205537DC1E4FF120A4D7DBF7F01120A7A
:1004C6004DE50E900C2493F4FD7F02120A4D7DFF3C
:1004D6007F03120A4D7F04120A4DE50E6401702A4D
:1004E600AE0BAF0CFC7D6412072A74342FF58274B0
:1004F6000C3EF583E493F4FD7F05120A4DAE0BAF77
:100506000C120A29AE0BAF0C8029AE09AF0A7C008B
:100516007D6412072A74342FF582740C3EF583E449
:1005260093F4FD7F05120A4DAE09AF0A120A29AEF1
:1005360009AF0A7C007D0A12072A74242DF58274FD
:100546000C3CF583E493F4FD7F07120A4D7F067E8B
:0F05560000120B1B7580FF0F120B1B75A0FF22ED
:030A7E00120066FD
:100A8100120CBA7F90120B51120C997F03120B5169
:100A9100120C99120CD5120CBA7F91120B51120C37
:100AA10099120C07750B008F0CAC0BAD0CE4120600
:100AB100707BFC7AFA79FA783F1205651206A98EE5
:0B0AC1000B8F0CD200120C57020CD55A
:100ACC00120CBA7F90120B51120C997F01120B5120
:100ADC00120C99120CD5120CBA7F91120B51120CEC
:100AEC0099120C077509008F0AAC09AD0AE41206BD
:100AFC00707BFC7AFA79FA783F1205651206A98E9A
:0B0B0C00098F0AD200120C57020CD512
:070CE100AE071FEE70FA22BE
:1009AF00E514700A7F04FE120B1B7580FF22D3E53E
:1009BF000A9518E509951740055319FE8003431949
:1009CF0001120B17851980D3E5139511E5129510B8
:1009DF0040055319FD8003431902120B1785198027
:1009EF00E50FB401055319FB8003431904120B17CC
:1009FF00851980E50FB402055319F78003431908D1
:100A0F00120B17851980E50FB403055319EF8003F7
:0A0A1F00431910120B1785198022ED
:100CAA00538EFB75D7B075D63C538EEF75AF0422C1
:03006300020BA8E5
:100BA800C0E0C0D075D000C007050DE50DB4140C29
:100BB800E51470047F0180027F008F14D007D0D025
:030BC800D0E03248
:1008710020B3307F64120CE120B328E50FB40105E9
:10088100750F028010E50FB40205750F0380067520
:100891000F01750E0120B30B120A7E120ACC120948
:1008A100AF80F220B2287F64120CE120B220E50F64
:1008B100B4030DE50EB40105750E038003750E0139
:1008C10020B20B120A7E120ACC1209AF80F220B1BB
:1008D1001F7F64120CE120B117850917850A1820C2
:1008E100B10E120066120A81120ACC1209AF80EF12
:1008F10020B02E7F64120CE120B0268512108513E2
:100901001120B011438E10120066120A81120ACC16
:100911001209AF80EC538EEFE4F50D75D7B075D6A3
:020921003C2276
:100BEA00120C6E120C3F120C84120CAA120066121E
:0D0BFA000A81120ACC1208711209AF80EFB7
:040CC900D2A07F0531
:080CCD0000AE071FEE70F922D2
:0F0CBA00D2A1120CC9C2A17F05120CCDC2A0227B
:0C0CD500C2A1120CC9D2A17F05020CCDF7
:100C5700C2A0A20092A17F05120CCD120CC9C2A09E
:070C6700D2A17F05020CCDB4
:100C9900120CC9A2A19200C2A07F05120CCDA2001C
:010CA9002228
:020B5100AD07EE
:100B5300E4FCC2A07F05120CCDED30E704D2A180E6
:100B630002C2A17F05120CCDD2A0ED25E0FD7F05C9
:090B7300120CCD0CBC08DBC2A081
:010B7C002256
:100C0700E4FC120CC9ED25E0FD30A103430501C248
:0C0C1700A07F05120CCD0CBC08E8AF0556
:010C230022AE
:10056500EC4D6011E8497017ED33EC3304600DE490
:10057500FCFFFEFD22E933E8330470F8020715128B
:1005850006E058046009E4CC24815006285009028D
:10059500071F28400302071CC0E0EB4A7044B980DE
:1005A50006D0E0FB02070BEF4E701CBD8008EBFF89
:1005B500EAFEE9FD80EBE98DF0A4FEE5F002064ECA
:1005C500E9CDF9EAFEEBFFEF89F0A4FCE5F0CE8971
:1005D500F0A42EFFE435F0CD89F0A42DFEE435F02E
:1005E5008067EF4E7005BD80D780C3EF8BF0A4AC5C
:1005F500F0EE8BF0A42CFCE435F0F8EF8AF0A42C97
:10060500E5F038FCE433CB8DF0A42CFCE5F03BF8A9
:10061500EE8AF0A42CFCE5F038F8E433CF89F0A499
:100625002CFCE5F038CF3400CE89F0A42FFFE5F09F
:100635003EFEE433C98DF0A42EFEE5F039CD8AF0F7
:10064500A42FFFE5F03EFEE43DFD33D0E0FB50076F
:100655000BBB000F02071FEC2CFCEF33FFEE33FE44
:06066500ED33FD0206F773
:10066B0075F020800E75F010800575F0087D007E0A
:10067B00007F003392D530D50312077FEC33401047
:10068B00EF33FFEE33FEED33FDEC33FCD5F0ED2213
:0E069B00E5F0247EA2D513CC92E7CDCEFF224F
:1006A900EDD2E7CD33EC3392D524814006E4FFFE49
:1006B900FDFC22FCE4CFCECDCC24E0501174FF80A8
:1006C900EDC3CC13CCCD13CDCE13CECF13CF047045
:0706D900F030D5DE02077FBF
:1006E000E9D2E7C933E833F892D5EDD2E7CD33EC60
:0706F00033FC5002B2D522D9
:1006F700EC30E7100FBF000C0EBE00080DBD000464
:100707000BEB6014A2D5EB13FCED92E7FD2274FF0F
:10071700FCFDFEFF22E480F8A2D574FF13FC7D8068
:03072700E480EF7C
:03000000020923CF
:0C092300787FE4F6D8FD75812002096A97
:10072A00BC000BBE0029EF8DF084FFADF022E4CCB3
:10073A00F875F008EF2FFFEE33FEEC33FCEE9DEC7C
:10074A00984005FCEE9DFE0FD5F0E9E4CEFD22EDC2
:10075A00F8F5F0EE8420D21CFEADF075F008EF2F0C
:10076A00FFED33FD4007985006D5F0F222C398FDFD
:05077A000FD5F0EA229A
:10001E00C2D5E830E70FB2D5E4C39BFBE49AFAE40D
:10002E0099F9E498F8EC30E717B2D512005412079C
:10003E00DFE4C39BFBE49AFAE499F9E498F88003B1
:10004E001207DF30D50DE4C39FFFE49EFEE49DFD55
:04005E00E49CFC2200
:0E077F00C3E49FFFE49EFEE49DFDE49CFC228B
:10078D00EB9FF5F0EA9E42F0E99D42F0EC6480C8E3
:06079D0064809845F02283
:10092F00020BEAE493A3F8E493A34003F68001F2E9
:10093F0008DFF48029E493A3F85407240CC8C333C9
:10094F00C4540F4420C8834004F456800146F6DF98
:10095F00E4800B0102040810204080900B7DE47EA0
:10096F00019360BCA3FF543F30E509541FFEE4938D
:10097F00A360010ECF54C025E060A840B8E493A354
:10098F00FAE493A3F8E493A3C8C582C8CAC583CA7F
:10099F00F0A3C8C582C8CAC583CADFE9DEE780BE37
:010BA700004D
:1007A30075F008758200EF2FFFEE33FECD33CDCC0D
:1007B30033CCC58233C5829BED9AEC99E582984090
:1007C3000CF582EE9BFEED9AFDEC99FC0FD5F0D66D
:1007D300E4CEFBE4CDFAE4CCF9A88222B800C1B997
:1007E3000059BA002DEC8BF084CFCECDFCE5F0CBD5
:1007F300F97818EF2FFFEE33FEED33FDEC33FCEB0E
:1008030033FB10D703994004EB99FB0FD8E5E4F9C8
:10081300FA227818EF2FFFEE33FEED33FDEC33FCB5
:10082300C933C910D7059BE99A4007EC9BFCE99AA9
:10083300F90FD8E0E4C9FAE4CCFB2275F010EF2FEE
:10084300FFEE33FEED33FDCC33CCC833C810D707EE
:100853009BEC9AE899400AED9BFDEC9AFCE899F829
:0E0863000FD5F0DAE4CDFBE4CCFAE4C8F922BC
:00000001FF
