:1005F1003F065B4F666D7D077F6F777C395E797152
:10050600010C01011200010E01011300010D000191
:0D0516001000010F0002080190020A000011
:1005A30090800074FFF090A000E4F090C00074FF0E
:0605B300F090E000F022D0
:0B05B900E493F4FD1205417F647E0016
:0B05C400EF1FAC0670011E4C70F62209
:1005410090E00074FFF07401A807088002C333D85B
:0B055100FC90C000F090E000EDF022F4
:0604BB003508F508AF0949
:1004C1008F151206017FA012048F1205E07F011221
:1004D100048F1205E0AF1512048F1205E002061019
:100461001206017FA012048F1205E07F0112048F92
:100471001205E01206017FA112048F1205E0120598
:0D048100248F16D20012058C120610AF1643
:01048E00224B
:10001E00E512700D90C00074FFF090E000F0020148
:10002E0018E512640160030200FE7DBFFF1205BDDC
:10003E00E50E9005F193F4FD7F011205BD7DBF7FA6
:10004E00021205BD7DFF7F031205BDD3E50994E7BE
:10005E00E5089403401AAE08AF097C037DE812034D
:10006E00A774F12FF58274053EF5837F041205B94E
:10007E00D3E5099463E5089400402BAE08AF097CE4
:10008E00037DE81203A77E007F64CFCDCFCECCCE0A
:10009E001203A774F12FF58274053EF583E493F4F1
:1000AE00FD7F051205BDD3E5099409E508940040CE
:1000BE0027AE08AF097C007D641203A77E007F0A7D
:1000CE00CFCDCFCECCCE1203A774F12FF58274050F
:1000DE003EF5837F061205B9AE08AF097C007D0A96
:1000EE001203A774F12DF58274053CF583E480129A
:1000FE00E512640270147DBF7F061205BDE50C90FB
:10010E0005F193F4FD7F071205BD90C00074FFF05A
:05011E0090E000F0225A
:100430001206017F9012048F1205E07F0312048FD1
:100440001205E01206101206017F9112048F1205A8
:10045000E01205248F14D20012058C120610AF147E
:010460002279
:10055C00438E805389F0438901758ACD758CD4D232
:08056C008CD2AFD2A9D2AB2260
:03000B000203FCF1
:1003FC00C0E0C0D0758ACD758CD4E5107021050B8A
:10040C00E50B7002050AC39509E50A950840080535
:10041C000F750A00750B00E50FB41903750F00D0AA
:04042C00D0D0E0321A
:10012300E50FB4190040030201DC900134F82828DC
:100133007302017F02018A02018C02018E02019087
:1001430002019202019402019602019802019A02AD
:10015300019F0201A40201A90201AE0201B302013F
:10016300B80201BD0201C20201C40201C60201C8F4
:100173000201CA0201CF0201D40201C27511FF902C
:100183008000E511F080528031802A8023801C801A
:1001930015800E8007800075117F803D7511BF802B
:1001A300387511DF80337511EF802E7511F78029B3
:1001B3007511FB80247511FD801F7511FE801A8057
:1001C30015800E800780007511E7800D7511DB80A7
:1001D300087511BD800375117EE50FC394154004A6
:1001E300750E0422E50FC394114004750E0322E536
:0E01F3000FC394094004750E0222750E0122FE
:10057400438E4053890F438910758BCD758DD4C23A
:080584008FD28ED2AFD2AB2260
:1004E100120430EFC394C04004750C0422EFC3948E
:1004F100804004750C0322EFC394404004750C0244
:0405010022750C0152
:0105050022D3
:03001B00020339A4
:10033900C0E0C0F0C083C082C0D075D000C000C08A
:1003490001C002C003C004C005C006C007758BCD3B
:10035900758DD41204E1E5107029E50C75F005A43A
:10036900FFC374149FFF050DE50DC39F40159080D1
:1003790000E511F0E50D94144009750D0074FFF0C6
:10038900120123D007D006D005D004D003D002D063
:0E03990001D000D0D0D082D083D0F0D0E0329E
:1002010020B0111205C020B00B6310FF20B0051201
:10021100001E80F820B11A1205C020B114E5127039
:10022100057512018003E4F51220B10512001E804C
:10023100F820B22F1205C020B229C3E50994B0E518
:10024100089404501EE512B4011974642509F509D6
:10025100E41204BB7FB87E0B1205C420B205120064
:100261001E80F820B3451205C020B32AD3E50994B6
:1002710090E5089401401FE512B4011A749C250908
:10028100F50974FF1204BB7FB87E0B1205C420B3BD
:100291000512001E80F820B312E512700E751202CD
:0C02A10020B30512001E80F8E4F51222C4
:1005CF0012055C1205741205A312020112001E809F
:0105DF00F823
:04000E00D2A07F05F8
:0800120000AE071FEE70F92299
:0F060100D2A112000EC2A17F05120012C2A022C8
:0C061000C2A112000ED2A17F0502001250
:10058C00C2A0A20092A17F0512001212000EC2A0FE
:07059C00D2A17F050200124D
:1005E00012000EA2A19201C2A07F05120012A20168
:0105F00022E8
:02048F00AD07B7
:10049100E4FCC2A07F05120012ED30E704D2A18076
:1004A10002C2A17F05120012D2A0ED25E0FD7F0559
:0904B1001200120CBC08DBC2A011
:0104BA00221F
:10052400E4FC12000EED25E0FD30A103430501C2F9
:0C053400A07F051200120CBC08E8AF0507
:010540002298
:030000000202AD4C
:0C02AD00787FE4F6D8FD7581200202F491
:1003A700BC000BBE0029EF8DF084FFADF022E4CC3A
:1003B700F875F008EF2FFFEE33FEEC33FCEE9DEC03
:1003C700984005FCEE9DFE0FD5F0E9E4CEFD22ED49
:1003D700F8F5F0EE8420D21CFEADF075F008EF2F93
:1003E700FFED33FD4007985006D5F0F222C398FD84
:0503F7000FD5F0EA2221
:1002B9000205CFE493A3F8E493A34003F68001F287
:1002C90008DFF48029E493A3F85407240CC8C33346
:1002D900C4540F4420C8834004F456800146F6DF15
:1002E900E4800B0102040810204080900506E47E9A
:1002F900019360BCA3FF543F30E509541FFEE4930A
:10030900A360010ECF54C025E060A840B8E493A3D0
:10031900FAE493A3F8E493A3C8C582C8CAC583CAFB
:10032900F0A3C8C582C8CAC583CADFE9DEE780BEB3
:0105230000D7
:00000001FF
