:100B65003F065B4F666D7D077F6F777C395E7971D8
:100B7500BF86DBCFE6EDFD87FFEF46808284868862
:090B85008A8C5059160606022361
:100A6800011600011800011B000115FF0117010103
:100A78000D01010E00011301011901011A010210F3
:100A8800000002080000010F1101141901120401ED
:080A98000A00010C00010B0033
:0A09E1007F041209EB851580E4FF86
:1009EB00EF24FC601114601714601D14602324079E
:1009FB00702753A01F22E5A0541F4480F5A022E5C9
:100A0B00A0541F44A0F5A022E5A0541F44C0F5A09C
:0A0A1B0022E5A0541F44E0F5A022DC
:07000300AE071FEE70FA22A8
:10098B00EF3395E0FEED3395E0FCED2FFFEC3EFEF3
:10099B007C007D0A12033274652FF582740B3EF5D1
:0709AB0083E493F4FD7F06D5
:1009B200AE077F061209EBAF067401A80708800292
:1009C200C333D8FCF5807F071209EB8D807FF412C8
:0F09D20000037F071209EB7580FFE4FF0209EBBA
:100B0D00E4F51CFD7F8E120CD7E51CC39407501520
:100B1D00E51C900B8093FFE51C900B8793FD120C49
:0C0B2D00D7051C80E47D807F8E020CD771
:100CAC007F85120AD98F167F83120AD98F187F81FC
:060CBC00120AD98F1B2271
:10090B00120B8E7FCC120BD77F44120BD7120B8E90
:10091B007FCC120BD77FBE120BD7120C608F1C1221
:10092B000C607510008F11E511F510E51CF511E544
:10093B0010C4F854F0C868FEE511C4540F48FF7C8E
:10094B00007D0A1202CB8E108F11E51C540FFCE4B4
:10095B00120216E4FBFA7920783F120106C004C09C
:10096B0005C006C007AC10AD11E4120211D003D0C4
:0F097B0002D001D00012001512024A8E108F1107
:01098A00224A
:100A2500120D107F90120B39120CFE7F01120B393B
:100A3500120CFE120D107F91120B39120CFE120BC7
:100A4500F57508008F097F01120C94120D1FAE0871
:100A5500AF097C007D641202CB7D331202DD8E0866
:030A65008F0922D4
:100CC200538E7F5389F0758AB0758C3CC28DC28C6D
:050CD200D2AFD2A922FF
:03000B00020C12D2
:100C1200C0E0C0D0050EE50EC3943C4008850D1718
:0A0C2200750E00C28CD0D0D0E03275
:100AA100E50DB40119D3E509943CE50894005027FC
:100AB100758AB0758C3CE4F50EF50DD28C22D3E528
:100AC10009943CE5089400400E758AB0758C3CE4AD
:080AD100F50E750D01D28C2217
:10037600E513640160030204EFE51964017052E5B8
:1003860016C4540F900B6593F4FDE4FF1209B2E511
:1003960016540F93F4FD7F011209B27DFF7F0212FE
:1003A60009B2E518C4540F93F4FD7F031209B2E5B0
:1003B60018540F93F4FD7F041209B27DFF7F0512D6
:1003C60009B2E51BC4540F1209ADE51B540F020513
:1003D600FBE5196402707A900B7493F4FDE4FF1246
:1003E60009B27DFF7F011209B27F021209B27F03B3
:1003F6001209B27F041209B2AE10AF117C007D64FF
:100406001202DD74652FF582740B3EF583E493F4D6
:10041600FD7F051209B2AE10AF117C007D64120299
:10042600DD7E007F0ACFCDCFCECCCE1202DD747535
:100436002FF582740B1209A9AE10AF117C007D0A4C
:100446001202DD74652DF582740B3CF583E402051A
:10045600FB7D89E4FF1209B27DFF7F011209B2AE6E
:1004660008AF097C007D641202DD74752FF5827475
:100476000B3EF583E493F4FD7F021209B2AE08AF9A
:10048600097C007D641202DD7E007F0ACFCDCFCECF
:10049600CCCE1202DD74652FF582740B3EF583E433
:1004A60093F4FD7F031209B2AE08AF097C007D0A02
:1004B6001202DD74652DF582740B3CF583E493F42A
:1004C600FD7F041209B27DFF7F051209B27F061275
:1004D60009B2D3E509943CE50894004005900B6504
:1004E6008003900B66E40205FBE51A6401705D90DB
:1004F6000B6A93F4FDE4FF1209B2900B69E493F4DE
:10050600FD7F011209B27DFF7F021209B27F03123D
:1005160009B27F041209B27F051209B2AF0AAD0F04
:1005260012098BAF0AEF3395E0FEAD0FED3395E080
:10053600FCED2FFFEC3EFE7C007D0A120332746553
:100546002DF582740B3CF583E40205FBE51A640283
:10055600900B6A705393F4FDE4FF1209B2E493F42E
:10056600FD7F011209B27DFF7F021209B27F0312DD
:1005760009B27F041209B27F051209B2AF0CAD149D
:1005860012098BAF0CEF3395E0FEAD14ED3395E019
:10059600FCED2FFFEC3EFE7C007D0A1203327465F3
:1005A6002DF582740B3C804AE493F4FDE4FF1209B6
:1005B600B2A3E493F4FD7F011209B27DFF7F02121C
:1005C60009B27F031209B27F041209B27F0512092C
:1005D600B27F061209B2AF0BEF3395E0FEAD12ED16
:1005E6003395E0FCED2FFFEC3EFE74652FF582742B
:0E05F6000B3EF583E493F4FD7F071209B22259
:1007C800E516C39408402AE516C4540F75F00AA428
:1007D800FFE516540F7C002FFFEC35F0FEAD0FED52
:1007E8003395E0FCC3EF9DEC6480F8EE648098409C
:1007F800055315FE80034315011209E1AF14EF33C9
:1008080095E0FE7C007D0A1202CBC3E5119FE5103E
:100818009E50055315FD80034315021209E1E517A3
:10082800B4010543150480035315FB1209E1E50DD6
:10083800703EE512B40408E51544F854F7802DE538
:1008480012B40508E51544F854EF8020E512B40603
:1008580008E51544F854DF8013E512B40708E515D8
:1008680044F854BF8006E51544F8547FF515800315
:070878004315F81209E1220B
:10060400C2C4D2B3D2C2D2B220B3427F64120003B6
:1006140020B33AE513B40108751302751901801F5C
:10062400751301E50A250FF50FE50C2514F514E5FE
:100634000B2512F512E4F50AF50CF50B751A0120D9
:10064400B30B12090B120CAC12037680F220B24BDE
:100654007F6412000320B243E513B40119E519B411
:1006640001057519028026E519B402057519038080
:100674001C7519018017E51AB40105751A02800D5D
:10068400E51AB40205751A038003751A0120B20B2A
:1006940012090B120CAC12037680F2C2C2D2B3D28E
:1006A400C4D2B230B3030207377F6412000330B3FD
:1006B40003020737E51AB40123AF0AEF3395E0FECE
:1006C400AD0FED3395E0FCED2FFFEC3EFED3EF9440
:1006D40000EE64809480404D150A8049E51AB40206
:1006E40023AF0CEF3395E0FEAD14ED3395E0FCED54
:1006F4002FFFEC3EFED3EF9400EE648094804025FF
:10070400150C8021AF0BEF3395E0FEAD12ED339560
:10071400E0FCED2FFFEC3EFED3EF9404EE648094F6
:10072400804002150B20B30B12090B120CAC120300
:100734007680F230B2030207C77F6412000330B23E
:10074400030207C7E51AB40123AF0AEF3395E0FEAD
:10075400AD0FED3395E0FCED2FFFEC3EFEC3EF94BF
:1007640017EE64809480504D050A8049E51AB4025E
:1007740023AF0CEF3395E0FEAD14ED3395E0FCEDC3
:100784002FFFEC3EFEC3EF9463EE6480948050250B
:10079400050C8021AF0BEF3395E0FEAD12ED3395E0
:1007A400E0FCED2FFFEC3EFEC3EF9408EE64809472
:1007B400805002050B20B20B12090B120CAC120371
:0407C4007680F22227
:100BB5007F041209EB7580FF7F071209EB7580FF33
:100BC5007F051209EBE4F580FF1209EB120B0D020C
:020BD5000CC250
:100C2C00120BB5120AA112090B120CAC120376129C
:0A0C3C000604120A251207C880E919
:100CEB00E4FEC297EF1392A3EFC313FFD2970EBE8E
:020CFB0008F0FF
:010CFD0022D4
:100CD700C29300C29700D29300120CEBAF05120C1F
:040CE700EBC29322A7
:100AD900E4FDC29300C29700D29300120CEBE4FF2D
:100AE900C297EDC313FD30A303430580D2970FBF0F
:100AF90008EEC29300C29700D29700C2A300D2A306
:030B090000AF0535
:010B0C0022C6
:040C46007F057E00A8
:100C4A00EF1FAA0670011E4A600BE4FDEDC3940C67
:050C5A0050EE0D80F7D3
:010C5F002272
:020BD700A9076C
:100BD900E4FBC294E9139294120C46D294E9C3132C
:0C0BE900F90BBB08ED7F057E00020C4AF2
:100C6000E4FBC294ECC313FCD2943094034304809D
:090C7000120C460BBB08EBAF04AB
:010C79002258
:100B8E00C200D2947F0C7E00120C4AC2947F507E1B
:100B9E0000120C4AD2947F0A7E00120C4AA2949242
:060BAE0000120C46A2003B
:010BB400221E
:040C7A00D2A07F0580
:100C7E00000000000000000000000000000000AEB8
:060C8E00071FEE70EB22CF
:0F0D1000D2A1120C7AC2A17F05120C7EC2A022C2
:0C0D1F00C2A1120C7AD2A17F05020C7E4A
:020B3900AD0706
:100B3B00E4FCC2A07F05120C7EED30E704D2A1804D
:100B4B0002C2A17F05120C7ED2A0ED25E0FD7F0530
:090B5B00120C7E0CBC08DBC2A0E8
:010B6400226E
:100BF500E4FC120C7AED25E0FD30A103430501C2AA
:0C0C0500A07F05120C7E0CBC08E8AF05B7
:010C110022C0
:100CFE00120C7AA2A1E433FDC2A07F05120C7EAFC6
:010D0E0005DF
:010D0F0022C1
:100C9400C2A0EF24FF92A17F05120C7E120C7AC22F
:080CA400A0D2A17F05020C7E25
:10000E000202B6E86480F8E933E83360110460F068
:10001E00ED33EC337009E8FCE9FDEAFEEBFF220458
:10002E0060DED3EB9FEA9EE99DE8C2E78CF0C2F753
:10003E0095F0400CE8CCF8E9CDF9EACEFAEBCFFB1F
:10004E0012028185D0F05804700320D5B3E80470F5
:10005E00075002B2D50202C092D5EC0460F7E4CC90
:10006E00C0E0C398F8603B94186008400DD0E0FBE8
:10007E00020298E4FBFAC9FC8028E830E406E4C9E1
:10008E00FBE4CAFCE830E305E4C9CACBFCE854073C
:10009E006010F8C3E913F9EA13FAEB13FBEC13FC47
:1000AE00D8F130F52FC3E49CFCEF9BFFEE9AFEEDEA
:1000BE0099FDD0E0FBEF4E4D4C701222DB03020295
:1000CE00BDEC2CFCEF33FFEE33FEED33FDED30E7F0
:1000DE00EB020298EF2BFFEE3AFEED39FDD0E0FB7E
:1000EE0050130BBB00030202C0ED13FDEE13FEEF27
:0800FE0013FFEC13FC02029851
:10010600EC4D6011E8497017ED33EC3304600DE4F3
:10011600FCFFFEFD22E933E8330470F80202B61252
:10012600028158046009E4CC248150062850090253
:1001360002C02840030202BDC0E0EB4A7044B98009
:1001460006D0E0FB0202ACEF4E701CBD8008EBFF50
:10015600EAFEE9FD80EBE98DF0A4FEE5F00201EF91
:10016600E9CDF9EAFEEBFFEF89F0A4FCE5F0CE89D4
:10017600F0A42EFFE435F0CD89F0A42DFEE435F091
:100186008067EF4E7005BD80D780C3EF8BF0A4ACBF
:10019600F0EE8BF0A42CFCE435F0F8EF8AF0A42CFA
:1001A600E5F038FCE433CB8DF0A42CFCE5F03BF80D
:1001B600EE8AF0A42CFCE5F038F8E433CF89F0A4FD
:1001C6002CFCE5F038CF3400CE89F0A42FFFE5F003
:1001D6003EFEE433C98DF0A42EFEE5F039CD8AF05B
:1001E600A42FFFE5F03EFEE43DFD33D0E0FB5007D3
:1001F6000BBB000F0202C0EC2CFCEF33FFEE33FE0C
:06020600ED33FD02029839
:10020C0075F020800E75F010800575F0087D007E6D
:10021C00007F003392D530D503120368EC334010C5
:10022C00EF33FFEE33FEED33FDEC33FCD5F0ED2276
:0E023C00E5F0247EA2D513CC92E7CDCEFF22B2
:10024A00EDD2E7CD33EC3392D524814006E4FFFEAC
:10025A00FDFC22FCE4CFCECDCC24E0501174FF800B
:10026A00EDC3CC13CCCD13CDCE13CECF13CF0470A8
:07027A00F030D5DE0203683D
:10028100E9D2E7C933E833F892D5EDD2E7CD33ECC3
:0702910033FC5002B2D5223C
:10029800EC30E7100FBF000C0EBE00080DBD0004C7
:1002A8000BEB6014A2D5EB13FCED92E7FD2274FF73
:1002B800FCFDFEFF22E480F8A2D574FF13FC7D80CC
:0302C800E480EFE0
:0300000002087F74
:0C087F00787FE4F6D8FD7581200208C6E1
:1002CB00EF8DF0A4A8F0CF8CF0A428CE8DF0A42E47
:0202DB00FE2201
:1002DD00BC000BBE0029EF8DF084FFADF022E4CC05
:1002ED00F875F008EF2FFFEE33FEEC33FCEE9DECCE
:1002FD00984005FCEE9DFE0FD5F0E9E4CEFD22ED14
:10030D00F8F5F0EE8420D21CFEADF075F008EF2F5D
:10031D00FFED33FD4007985006D5F0F222C398FD4E
:05032D000FD5F0EA22EB
:10033200C2D5EC30E709B2D5E4C39DFDE49CFCEEE6
:1003420030E715B2D5E4C39FFFE49EFE1202DDC37F
:10035200E49DFDE49CFC80031202DD30D507C3E47A
:060362009FFFE49EFE2255
:0E036800C3E49FFFE49EFEE49DFDE49CFC22A6
:10088B00020C2CE493A3F8E493A34003F68001F24B
:10089B0008DFF48029E493A3F85407240CC8C3336E
:1008AB00C4540F4420C8834004F456800146F6DF3D
:1008BB00E4800B0102040810204080900A68E47E5B
:1008CB00019360BCA3FF543F30E509541FFEE49332
:1008DB00A360010ECF54C025E060A840B8E493A3F9
:1008EB00FAE493A3F8E493A3C8C582C8CAC583CA24
:1008FB00F0A3C8C582C8CAC583CADFE9DEE780BEDC
:010AA0000055
:00000001FF
