:100C87003F065B4F666D7D077F6F777C395E7971B5
:0B0C9700BF86DBCFE6EDFD87FFEF46D8
:100B33000215000002120000021B00000208000060
:100B430002180000011A01010E01020C0001020F3C
:100B53000001021D00010114FF010A000117000139
:050B63000B0001110070
:07000300AE071FEE70FA22A8
:0A001E007F04120028851480E4FF1F
:10002800EF24FC601114601714601D14602324076A
:10003800702753A01F22E5A0541F4480F5A022E595
:10004800A0541F44A0F5A022E5A0541F44C0F5A069
:0A00580022E5A0541F44E0F5A022A9
:100D4B007F041200287580FF0F120028E4F580FF46
:030D5B000200286B
:100A65007C007D6412071C7E007F0ACFCDCFCECCE3
:100A7500CE12071C74872FF582740C3EF583E49320
:040A8500F4FD7F06F7
:100A8900AE077F06120028AF067401A80708800286
:100A9900C333D8FCF5807F071200288D807FF412BC
:0F0AA90000037F071200287580FFE4FF0200287A
:10006600E51A6401600302022DE50E6401703D7D10
:10007600C1FF120A897DFF7F01120A897F02120AD7
:10008600897F03120A897F04120A897F05120A8969
:10009600AE15AF167C007D0A12071C74972FF582E9
:1000A600740C120A80AE15AF160203F7E50E640251
:1000B60060030201AF7D8EFF120A897DFF7F011268
:1000C6000A897F02120A89D3E519940FE518942745
:1000D600401BAE18AF197C277D1012071C74872FA2
:1000E600F582740C3EF583E493F4FD80027DFF7F78
:1000F60003120A89D3E51994E7E51894034028AE5C
:1001060018AF197C277D1012071C7E037FE8CFCD20
:10011600CFCECCCE12071C74872FF582740C3EF519
:1001260083E493F4FD80027DFF7F04120A89D3E500
:10013600199463E51894004028AE18AF197C037D26
:10014600E812071C7E007F64CFCDCFCECCCE12073F
:100156001C74872FF582740C3EF583E493F4FD80BE
:10016600027DFF7F05120A89D3E5199409E51894E3
:10017600004028AE18AF197C007D6412071C7E0073
:100186007F0ACFCDCFCECCCE12071C74872FF58237
:10019600740C3EF583E493F4FD80027DFF7F061226
:1001A6000A89AE18AF190203F77DC6E4FF120A8961
:1001B6007DFF7F01120A897F02120A897F03120AD4
:1001C60089D3E51394E7E5129403401BAE12AF13EF
:1001D6007C037DE812071C74872FF582740C3EF5AC
:1001E60083E493F4FD80027DFF7F04120A89AE1238
:1001F600AF137C037DE812071C7E007F64CFCDCF52
:10020600CECCCE12071C74972FF582740C3EF58364
:10021600E493F4FD7F05120A89AE12AF13120A6544
:10022600AE12AF130203F7E51A6402600302040B71
:10023600E50E6401703F7D89FF120A897DC17F0149
:10024600120A897DFF7F02120A897F03120A897FBB
:1002560004120A897F05120A89AE0CAF0D7C007D57
:100266000A12071C74972FF582740C120A80AE0CC2
:10027600AF0D0203F7E50E6402600302037A7D897F
:10028600FF120A897D8E7F01120A897DFF7F021285
:100296000A89D3E519940FE5189427401BAE0FAFD2
:1002A600107C277D1012071C74872FF582740C3E74
:1002B600F583E493F4FD80027DFF7F03120A89D360
:1002C600E51994E7E51894034028AE0FAF107C2794
:1002D6007D1012071C7E037FE8CFCDCFCECCCE1289
:1002E600071C74872FF582740C3EF583E493F4FDA6
:1002F60080027DFF7F04120A89D3E5199463E5180D
:1003060094004028AE0FAF107C037DE812071C7ED8
:10031600007F64CFCDCFCECCCE12071C74872FF5CD
:1003260082740C3EF583E493F4FD80027DFF7F0525
:10033600120A89D3E5199409E51894004028AE0FEE
:10034600AF107C007D6412071C7E007F0ACFCDCFE4
:10035600CECCCE12071C74872FF582740C3EF58323
:10036600E493F4FD80027DFF7F06120A89AE0FAF8B
:10037600100203F77D89E4FF120A897DC67F011208
:100386000A897DFF7F02120A897F03120A89D3E553
:100396001E94E7E51D9403401BAE1DAF1E7C037D36
:1003A600E812071C74872FF582740C3EF583E493DC
:1003B600F4FD80027DFF7F04120A89AE1DAF1E7C0C
:1003C600037DE812071C7E007F64CFCDCFCECCCE56
:1003D60012071C74972FF582740C3EF583E493F490
:1003E600FD7F05120A89AE1DAF1E120A65AE1DAF4E
:1003F6001E7C007D0A12071C74872DF582740C3C46
:10040600F583E480397D8CE4FF120A897DFF7F0144
:10041600120A897F02120A897F03120A897F04124F
:100426000A897F05120A89E50B75F00A84900C97F4
:10043600120A84E50B75F00A84E5F0900C8793F4B4
:07044600FD7F07120A892265
:10093700120BC17FCC120C4C7F44120C4C120BC112
:100947007FCC120C4C7FBE120C4C120CD68F24128B
:100957000CD67512008F13E513F512E524F5135421
:100967000FFCE4120655E4FBFA79C87840120545F6
:10097700C004C005C006C007E512C4F854F0C86833
:10098700FEE513C4540F48FF7C007D6412070AACD0
:1009970006AD07E4120650D003D002D001D00012F2
:0909A70004541206898E128F130C
:0109B0002224
:100AB800120D827F90120B95120D707F03120B9509
:100AC800120D70120066120D827F91120B95120D95
:100AD80070120C6A7515008F16AE157C007D0A120F
:100AE800070A7D3312071C8E158F167F01120D0819
:030AF800020D915B
:100CF000438E805389F0438906758AFF758CFFC245
:080D00008DD28CD2AFD2A922E2
:03000B0002000EE2
:0D000E00C0E0051CE51C7002051BD0E032AF
:100D3600538EBF53890F758BB0758D3CC28FD28E83
:050D4600D2AFD2AB2288
:03001B00020B696C
:100B6900C0E0C0D00509E50970020508C39414E581
:100B79000894004012851B18851C19751B00751CEB
:0C0B890000750800750900D0D0D0E032E3
:100BE8008F228C238D24120D827FA0120B95120D5B
:100BF80070AF22120B95120D70AF24120B95120DC7
:040C080070020D91D8
:020AFB008F2149
:100AFD00E4F522120D827FA0120B95120D70AF211D
:100B0D00120B95120D70120066120D827FA1120B41
:100B1D0095120D70120C6A8F227F01120D08120DA5
:050B2D0091AF227E00E3
:010B320022A0
:040C0C007F017E00E6
:100C10008E228F23E5231523AE22700215224E600B
:0D0C20000B120937120AB812006680E82294
:100D200075220C7523A9120937120AB81209B1D518
:050D300023FDD522F1B6
:010D3500229B
:10077F0020B3397F6412000320B331E51A6401609E
:10078F0006E51A64027025E50EB40105750E0280A8
:10079F000DE50EB40205750E038003750E0120B32F
:1007AF000B120937120AB81209B180F220B2697F11
:1007BF006412000320B261AD16AC157F01120BE875
:1007CF00120C0CAD19AC187F02120BE8120C0CE5D1
:1007DF0018FD7C007F03120BE8120C0CAD13AC124A
:1007EF007F04120BE8120C0CE512FD7C007F051242
:1007FF000BE8120C0C85150C85160D85180F851935
:10080F001085121D85131E20B20E120937120AB859
:10081F001200661209B480EF20B1577F64120003F3
:09082F0020B14FE51A6403702B9F
:10083800F521E50BC3943240028017050B20B1392E
:100848000521120D20E521D3940540F1E50B9432E2
:0B0858004005750B0180E6050B80E2F7
:10086300E51AB40105751A028003751A0120B10E49
:10087300120937120AB81200661209B480EF20B0C9
:10088300267F6412000320B01EE51AB40305751A0F
:10089300018003751A0320B00E120937120AB81229
:0808A30000661209B480EF2287
:100D5E00538EFB75D7B075D63C538EEFD2AF43AFE3
:020D6E0004225D
:03006300020C2D5F
:100C2D00C0E0C0D00511E511C39410400DE51420AE
:0F0C3D00E705431480800353147FD0D0D0E032FA
:0309B100120066CB
:1009B400E51AB4010AE50EB403055314FE8003439B
:1009C400140112001EE51AB4010AE50EB40205531F
:1009D40014FD800343140212001EE51AB4010AE553
:1009E4000EB401055314FB800343140412001ED3F8
:1009F400E516950BE51594004004438E1022538EA2
:0B0A0400EFE4F51143148012001E22E5
:100A0F00120D5E120D4B120CF0120D367F01120AF1
:100A1F00FB8E0C8F0D7F03120AFB8E0F8F107F0240
:100A2F00120AFB8F0AE510F50FE50AF5107F051284
:100A3F000AFB8E1D8F1E7F04120AFB8F17E51EF512
:100A4F001DE517F51E120937120AB81200661207B4
:060A5F007F1209B480EFD4
:040CA200D2A07F0558
:100CA600000000000000000000000000000000AE90
:060CB600071FEE70EB22A7
:0F0D8200D2A1120CA2C2A17F05120CA6C2A02200
:0C0D9100C2A1120CA2D2A17F05020CA688
:020B9500AD07AA
:100B9700E4FCC2A07F05120CA6ED30E704D2A180C9
:100BA70002C2A17F05120CA6D2A0ED25E0FD7F05AC
:090BB700120CA60CBC08DBC2A064
:010BC0002212
:100C6A00E4FC120CA2ED25E0FD30A103430501C20C
:0C0C7A00A07F05120CA60CBC08E8AF051A
:010C8600224B
:100D7000120CA2A2A1E433FDC2A07F05120CA6AF03
:010D8000056D
:010D8100224F
:100D0800C2A0EF24FF92A17F05120CA6120CA2C26A
:080D1800A0D2A17F05020CA688
:040CBC007F057E0032
:100CC000EF1FAA0670011E4A600BE4FDEDC3940CF1
:050CD00050EE0D80F75D
:010CD50022FC
:020C4C00A907F6
:100C4E00E4FBC294E9139294120CBCD294E9C31340
:0C0C5E00F90BBB08ED7F057E00020CC006
:100CD600E4FBC294ECC313FCD29430940343048027
:090CE600120CBC0BBB08EBAF04BF
:010CEF0022E2
:100BC100C200D2947F0C7E00120CC0C2947F507E72
:100BD10000120CC0D2947F0A7E00120CC0A2949223
:060BE10000120CBCA20092
:010BE70022EB
:10044D000206F5E86480F8E933E83360110460F0E2
:10045D00ED33EC337009E8FCE9FDEAFEEBFF220415
:10046D0060DED3EB9FEA9EE99DE8C2E78CF0C2F710
:10047D0095F0400CE8CCF8E9CDF9EACEFAEBCFFBDC
:10048D001206C085D0F05804700320D5B3E804706F
:10049D00075002B2D50206FF92D5EC0460F7E4CC0A
:1004AD00C0E0C398F8603B94186008400DD0E0FBA5
:1004BD000206D7E4FBFAC9FC8028E830E406E4C95B
:1004CD00FBE4CAFCE830E305E4C9CACBFCE85407F9
:1004DD006010F8C3E913F9EA13FAEB13FBEC13FC04
:1004ED00D8F130F52FC3E49CFCEF9BFFEE9AFEEDA7
:1004FD0099FDD0E0FBEF4E4D4C701222DB0302064E
:10050D00FCEC2CFCEF33FFEE33FEED33FDED30E76D
:10051D00EB0206D7EF2BFFEE3AFEED39FDD0E0FBF7
:10052D0050130BBB00030206FFED13FDEE13FEEFA0
:08053D0013FFEC13FC0206D7CA
:10054500EC4D6011E8497017ED33EC3304600DE4B0
:10055500FCFFFEFD22E933E8330470F80206F512CC
:1005650006C058046009E4CC2481500628500902CD
:1005750006FF2840030206FCC0E0EB4A7044B98040
:1005850006D0E0FB0206EBEF4E701CBD8008EBFFCA
:10059500EAFEE9FD80EBE98DF0A4FEE5F002062E0A
:1005A500E9CDF9EAFEEBFFEF89F0A4FCE5F0CE8991
:1005B500F0A42EFFE435F0CD89F0A42DFEE435F04E
:1005C5008067EF4E7005BD80D780C3EF8BF0A4AC7C
:1005D500F0EE8BF0A42CFCE435F0F8EF8AF0A42CB7
:1005E500E5F038FCE433CB8DF0A42CFCE5F03BF8CA
:1005F500EE8AF0A42CFCE5F038F8E433CF89F0A4BA
:100605002CFCE5F038CF3400CE89F0A42FFFE5F0BF
:100615003EFEE433C98DF0A42EFEE5F039CD8AF017
:10062500A42FFFE5F03EFEE43DFD33D0E0FB50078F
:100635000BBB000F0206FFEC2CFCEF33FFEE33FE85
:06064500ED33FD0206D7B3
:10064B0075F020800E75F010800575F0087D007E2A
:10065B00007F003392D530D503120771EC33401075
:10066B00EF33FFEE33FEED33FDEC33FCD5F0ED2233
:0E067B00E5F0247EA2D513CC92E7CDCEFF226F
:10068900EDD2E7CD33EC3392D524814006E4FFFE69
:10069900FDFC22FCE4CFCECDCC24E0501174FF80C8
:1006A900EDC3CC13CCCD13CDCE13CECF13CF047065
:0706B900F030D5DE020771ED
:1006C000E9D2E7C933E833F892D5EDD2E7CD33EC80
:0706D00033FC5002B2D522F9
:1006D700EC30E7100FBF000C0EBE00080DBD000484
:1006E7000BEB6014A2D5EB13FCED92E7FD2274FF30
:1006F700FCFDFEFF22E480F8A2D574FF13FC7D8089
:03070700E480EF9C
:030000000208AB48
:0C08AB00787FE4F6D8FD7581240208F285
:10070A00EF8DF0A4A8F0CF8CF0A428CE8DF0A42E03
:02071A00FE22BD
:10071C00BC000BBE0029EF8DF084FFADF022E4CCC1
:10072C00F875F008EF2FFFEE33FEEC33FCEE9DEC8A
:10073C00984005FCEE9DFE0FD5F0E9E4CEFD22EDD0
:10074C00F8F5F0EE8420D21CFEADF075F008EF2F1A
:10075C00FFED33FD4007985006D5F0F222C398FD0B
:05076C000FD5F0EA22A8
:0E077100C3E49FFFE49EFEE49DFDE49CFC2299
:1008B700020A0FE493A3F8E493A34003F68001F23E
:1008C70008DFF48029E493A3F85407240CC8C33342
:1008D700C4540F4420C8834004F456800146F6DF11
:1008E700E4800B0102040810204080900B33E47E63
:1008F700019360BCA3FF543F30E509541FFEE49306
:10090700A360010ECF54C025E060A840B8E493A3CC
:10091700FAE493A3F8E493A3C8C582C8CAC583CAF7
:10092700F0A3C8C582C8CAC583CADFE9DEE780BEAF
:010B6800008C
:00000001FF
