:100A3E003F065B4F666D7D077F6F777C395E797100
:0B0A4E00BF86DBCFE6EDFD87FFEF4623
:10099000041200000000020D0000010C010416000A
:1009A000000000020F000002090000010B0001110D
:0709B000FF010800011A001D
:10093100EF24FB601314601914601F24037023E576
:10094100A0541F4480F5A022E5A0541F44A0F5A0A7
:1009510022E5A0541F44C0F5A022E5A0541F44E0A5
:03096100F5A022DC
:1008F700120AA77FA0120964120A96E4FF1209647C
:10090700120A96120AC2120AA77FA1120964120AD2
:1009170096120A06AC07E412032F8F198E188D174B
:0A0927008C16D200120A59020AC20F
:100A23007F041209317580FF7F071209317580FF3A
:0B0A33007F05120931E4F5800208F78E
:07000300AE071FEE70FA22A8
:100831007C007D641204397E007F0ACFCDCFCECCFF
:10084100CE120439743E2FF582740A3EF583E49387
:04085100F4FD7F062D
:10085500AE077F071209317580FF1F120931AF06F8
:100865007401A807088002C333D8FCF5807F0712FE
:0908750009318D807FF4020003BB
:1007DC00120AA77F90120964120A967F0312096409
:1007EC00120A96120AC2120AA77F91120964120AFF
:1007FC0096120A06AC07E412032F8F158E148D1374
:10080C008C12D200120A59120AC2AF15AE14AD13D3
:10081C00AC12E4FBFA794C784212020F8F158E144D
:05082C008D138C122267
:10047D00E50C6401705D7DC1FF1208557DFF7F01A4
:10048D001208557F021208557F031208557F04127A
:10049D000855E4FFFE7DC87C42AB15AA14A913A82C
:1004AD00121201061203638E0D8F0E7C007D6412F5
:1004BD000439744E2FF582740A3EF583E493F4FDEE
:1004CD007F05120855AE0DAF0E120831AE0DAF0EF1
:1004DD00020540E50C640270777D8CFF1208557D96
:1004ED00FF7F011208557F021208557F0312085530
:1004FD007F04120855E4FFFE7D207C41AB19AA183C
:10050D00A917A8161201061203638E0F8F107C0017
:10051D007D64120439744E2FF582740A3EF583E41E
:10052D0093F4FD7F05120855AE0FAF10120831AED2
:10053D000FAF107C007D0A120439743E2DF58274C4
:10054D000A3CF583E493F4FD7F0712085502062556
:10055D007DC8E4FF1208557DFF7F011208557F020B
:10056D001208557F031208557F04120855D3E50A6A
:10057D009463E5099400404EAE09AF0A7C007D649A
:10058D001203E4744E2FF582740A3EF583E493F45E
:10059D00FD7F05120855AE09AF0A7C007D6412037C
:1005AD00E47E007F0ACFCDCFCECCCE1203E412086D
:1005BD0045AE09AF0A7C007D0A1203E4743E2DF5A9
:1005CD0082740A3C8047D3E50A9409E50994007DBD
:1005DD00FF7F054026120855AE09AF0A7C007D0A43
:1005ED001203E4120845AE09AF0A7C007D0A12031E
:1005FD00E4743E2DF582740A3C80121208557F0674
:10060D00120855743E250AF582740A3509F583E4FE
:10061D0093F4FD7F071208557F071209317580FF8E
:01062D0022AA
:06087E0012047D1208BB0C
:10088400E4FFFE7D207C41AB15AA14A913A8121223
:100894000106AB19AA18A917A8161202AC500675BE
:1008A4000B01D28C22E50B6008050AE50A700205EB
:0708B40009E4F50BC28C22E0
:100A7000538E7F5389F0758AB0758C3CC28DC28CC1
:050A8000D2AFD2A92253
:03000B000209B82F
:1009B800C0E0C0D075D000C0070508E508B46410D1
:1009C8005311FE7F04120931851180750800C28C0D
:0709D800D007D0D0D0E032BF
:1008BB00E50B700B4311017F04120931851180E5A3
:1008CB000A20E00543110280035311FD7F04120936
:1008DB0031851180E51AC3940340055311FB800346
:0C08EB004311047F0412093185118022A2
:1009DF00120AA77FA0120964120A96E4FF12096493
:1009EF00120A96AF19AE18AD17AC1612036312099F
:0709FF0064120A96020AC20D
:10062E00D2B4D2B3D2B2C2B520B3367F64120003B5
:10063E0020B32EE50CB40108E4F51A750C028016F1
:10064E00E50CB4020B1209DF750C03E4F51A8006F3
:10065E00E4F51A750C0120B3081207DC12087E802F
:10066E00F520B2237F6412000320B21BE50CB40305
:10067E0009E4F51AF509F50A8002051A20B20812E6
:10068E0007DC12087E80F5D2B5D2B3D2B2C2B42046
:10069E00B3577F6412000320B34FE50CB4023DAF95
:1006AE0019AE18AD17AC16E4FBFA79A0784012001B
:1006BE00158F198E188D178C16E4F51AFFFE7D48CE
:1006CE007C42AB19AA18A917A8161202AC600F40EB
:1006DE000DE4F519F518F517F5168002051A20B375
:1006EE00081207DC12087E80F520B2557F641200D6
:1006FE000320B24DE50CB4023BE4F51AAF19AE1867
:10070E00AD17AC16FBFA79A078401200118F198E36
:10071E00188D178C16E4FFFEFDFCAB19AA18A9174D
:10072E00A8161202AC500FE4F519F5187517487596
:10073E0016428002051A20B2081207DC12087E80CB
:02074E00F52292
:100A8500120A23120A701207DC12087E12062E8043
:010A9500F56B
:040AB600D2A07F0546
:080ABA0000AE071FEE70F922E7
:0F0AA700D2A1120AB6C2A17F05120ABAC2A022BA
:0C0AC200C2A1120AB6D2A17F05020ABA36
:100A5900C2A0A20092A17F05120ABA120AB6C2A0C8
:070A6900D2A17F05020ABAC9
:100A9600120AB6A2A19200C2A07F05120ABAA2004B
:010AA600222D
:02096400AD07DD
:10096600E4FCC2A07F05120ABAED30E704D2A180EA
:1009760002C2A17F05120ABAD2A0ED25E0FD7F05CD
:09098600120ABA0CBC08DBC2A085
:01098F002245
:100A0600E4FC120AB6ED25E0FD30A103430501C260
:0C0A1600A07F05120ABA0CBC08E8AF056E
:010A220022B1
:10000E000203CFE86480F8E933E83360110460F04E
:10001E00ED33EC337009E8FCE9FDEAFEEBFF220458
:10002E0060DED3EB9FEA9EE99DE8C2E78CF0C2F753
:10003E0095F0400CE8CCF8E9CDF9EACEFAEBCFFB1F
:10004E0012039A85D0F05804700320D5B3E80470DB
:10005E00075002B2D50203D992D5EC0460F7E4CC76
:10006E00C0E0C398F8603B94186008400DD0E0FBE8
:10007E000203B1E4FBFAC9FC8028E830E406E4C9C7
:10008E00FBE4CAFCE830E305E4C9CACBFCE854073C
:10009E006010F8C3E913F9EA13FAEB13FBEC13FC47
:1000AE00D8F130F52FC3E49CFCEF9BFFEE9AFEEDEA
:1000BE0099FDD0E0FBEF4E4D4C701222DB03020394
:1000CE00D6EC2CFCEF33FFEE33FEED33FDED30E7D7
:1000DE00EB0203B1EF2BFFEE3AFEED39FDD0E0FB64
:1000EE0050130BBB00030203D9ED13FDEE13FEEF0D
:0800FE0013FFEC13FC0203B137
:10010600EC4D6011E8497017ED33EC3304600DE4F3
:10011600FCFFFEFD22E933E8330470F80203CF1238
:10012600039A58046009E4CC248150062850090239
:1001360003D92840030203D6C0E0EB4A7044B980D5
:1001460006D0E0FB0203C5EF4E701CBD8008EBFF36
:10015600EAFEE9FD80EBE98DF0A4FEE5F00201EF91
:10016600E9CDF9EAFEEBFFEF89F0A4FCE5F0CE89D4
:10017600F0A42EFFE435F0CD89F0A42DFEE435F091
:100186008067EF4E7005BD80D780C3EF8BF0A4ACBF
:10019600F0EE8BF0A42CFCE435F0F8EF8AF0A42CFA
:1001A600E5F038FCE433CB8DF0A42CFCE5F03BF80D
:1001B600EE8AF0A42CFCE5F038F8E433CF89F0A4FD
:1001C6002CFCE5F038CF3400CE89F0A42FFFE5F003
:1001D6003EFEE433C98DF0A42EFEE5F039CD8AF05B
:1001E600A42FFFE5F03EFEE43DFD33D0E0FB5007D3
:1001F6000BBB000F0203D9EC2CFCEF33FFEE33FEF2
:06020600ED33FD0203B11F
:10020C000203D9EC5D046005E8590470030203CFC6
:10021C0012039A580460F6EC4860F2EC7004FDFE90
:10022C00FF22C860DB2481C85009C39860025006C5
:10023C000203D69850CAF582E9294B4A7005AB8265
:10024C000203C575F0007C1A7880C3EF9BEE9AED23
:10025C0099400DC3EF9BFFEE9AFEED99FDE842F03D
:10026C00DC23ACF0D0E0FFD0E0FED0E0FDAB822090
:10027C00E7101BEB60BAEC2CFCEF33FFEE33FEED1A
:10028C0033FD0203B1E803F830E705C0F075F00068
:10029C00EF2FFFEE33FEED33FD40B830E7C280AAFE
:1002AC0074F8CC6480CCC86480C8F58204604FC3F9
:1002BC00EB9FF5F0EA9E42F0E99D42F0E89C45F098
:1002CC00603C501DE5825FFFE582D313CB5BCBF422
:1002DC002B5582FB50280ABA002409B9002008804B
:1002EC001DE5825BFBE582D313CF5FCFF4C3132FE5
:1002FC005582FF50090EBE00050DBD00010CC3EB6D
:10030C009FF5F0EA9E42F0E99D42F0E89C45F060D2
:09031C0007CC4820E701B3EC22F4
:1003250075F020800E75F010800575F0087D007E53
:10033500007F003392D530D50312046FEC334010A3
:10034500EF33FFEE33FEED33FDEC33FCD5F0ED225C
:0E035500E5F0247EA2D513CC92E7CDCEFF2298
:10036300EDD2E7CD33EC3392D524814006E4FFFE92
:10037300FDFC22FCE4CFCECDCC24E0501174FF80F1
:10038300EDC3CC13CCCD13CDCE13CECF13CF04708E
:07039300F030D5DE02046F1B
:10039A00E9D2E7C933E833F892D5EDD2E7CD33ECA9
:0703AA0033FC5002B2D52222
:1003B100EC30E7100FBF000C0EBE00080DBD0004AD
:1003C1000BEB6014A2D5EB13FCED92E7FD2274FF59
:1003D100FCFDFEFF22E480F8A2D574FF13FC7D80B2
:0303E100E480EFC6
:03000000020750A4
:0C075000787FE4F6D8FD75812002079741
:1003E400BC000BBE0029EF8DF084FFADF022E4CCFD
:1003F400F875F008EF2FFFEE33FEEC33FCEE9DECC6
:10040400984005FCEE9DFE0FD5F0E9E4CEFD22ED0B
:10041400F8F5F0EE8420D21CFEADF075F008EF2F55
:10042400FFED33FD4007985006D5F0F222C398FD46
:050434000FD5F0EA22E3
:10043900C2D5EC30E709B2D5E4C39DFDE49CFCEEDE
:1004490030E715B2D5E4C39FFFE49EFE1203E4C36F
:10045900E49DFDE49CFC80031203E430D507C3E46A
:060469009FFFE49EFE224D
:0E046F00C3E49FFFE49EFEE49DFDE49CFC229E
:10075C00020A85E493A3F8E493A34003F68001F224
:10076C0008DFF48029E493A3F85407240CC8C3339E
:10077C00C4540F4420C8834004F456800146F6DF6D
:10078C00E4800B0102040810204080900990E47E64
:10079C00019360BCA3FF543F30E509541FFEE49362
:1007AC00A360010ECF54C025E060A840B8E493A329
:1007BC00FAE493A3F8E493A3C8C582C8CAC583CA54
:1007CC00F0A3C8C582C8CAC583CADFE9DEE780BE0C
:0109B700003F
:00000001FF
