:1008340010523F065B4F666D7D077F6F777C395E94
:1008440079710B2CBF86DBCFE6EDFD87FFEF460207
:10085400430000024B000002460000014501015024
:100864000101510101481E014223014E00014D00C6
:10087400014A00014901014000012100012B00014E
:0B0884002200014F00014100013F0075
:07000300AE071FEE70FA22A8
:10091500EF24FC601114601714601D146023240774
:10092500702753A01F22E5A0541F4480F5A022E59F
:10093500A0541F44A0F5A022E5A0541F44C0F5A073
:0A09450022E5A0541F44E0F5A022B3
:1009B100AE077F071209157580FF1F120915AF06D3
:1009C1007401A807088002C333D8FCF5807F0712A1
:0909D10009158D80E4FF020915EF
:100752001209DA7FCC120A837F44120A831209DA61
:100762007FCC120A837FBE120A83120AF28F08120A
:100772000AF27543008F44E544F543E508F544E584
:1007820043C4F854F0C868FEE544C4540F48FF7CE3
:10079200007D641202DB8E438F44E508540FFCE4B3
:1007A200120226E4FBFA79C87840120116C004C08E
:1007B20005C006C007AC43AD44E4120221D003D009
:0F07C20002D001D00012002512025A8E438F443C
:0107D1002205
:060B980000007F21DFFEDA
:010B9E002234
:100B7800E4FED290120B98C290120B980EBE08F2A7
:010B8800224A
:100B3C00538E7F5389F0758A18758CFCC28DD28CBC
:050B4C00D2AFD2A92286
:03000B0002094F98
:10094F00C0E0C0D075D000C000C005C006C007749D
:10095F0023254FF8E6FDAF4F1209B1054FE54FC301
:10096F0094084003754F00053FD007D006D005D03F
:06097F0000D0D0D0E032F0
:10089000E4F5D9F5E9F5F9120B78D2DE208D0320C5
:1008A00091FAC2DE30DF09754B03754CE7C2DF22D7
:1008B000AFF9EFADE9F54BEDF54CAC4BE41202218D
:1008C0007B967A43798B783C12011612025A8E4B32
:0308D0008F4C2228
:10035000E545640160030204BEE55064017068E590
:100360005EF4F5237524FF7525FF7526FFAE43AFB8
:10037000447C037DE81202ED74522FF8E6F4F52771
:10038000AE43AF447C037DE81202ED7E007F64CF74
:10039000CDCFCECCCE1202ED742C2FF8E6F4F5289A
:1003A000AE43AF447C007D641202ED7E007F0ACF35
:1003B000CDCFCECCCE1202ED74522FF8E6F4F52953
:1003C000AE43AF440204B8E5506402702B7523C7F6
:1003D0007524FF7525FF7526FF7527FF7528FFAE6D
:1003E0004BAF4CFC7D0A1202ED74522FF8E6F4F587
:1003F00029AE4BAF4C0204B87523987524FF7525C0
:10040000FFD3E547940FE54694274015AE46AF4726
:100410007C277D101202ED74522FF8E6F4F5268049
:10042000037526FFD3E54794E7E54694034022AEE3
:1004300046AF477C277D101202ED7E037FE8CFCDCB
:10044000CFCECCCE1202ED74522FF8E6F4F5278011
:10045000037527FFD3E5479463E54694004022AE39
:1004600046AF477C037DE81202ED7E007F64CFCD6E
:10047000CFCECCCE1202ED74522FF8E6F4F52880E0
:10048000037528FFD3E5479409E54694004022AE62
:1004900046AF477C007D641202ED7E007F0ACFCD1F
:1004A000CFCECCCE1202ED74522FF8E6F4F52980AF
:1004B000037529FFAE46AF477C007D0A8061E55198
:1004C0006401701F75238C7524FF7525FFE553F4B7
:1004D000F5267527FF7528FFAF2BEF3395E0FEE576
:1004E00048801D75238C7524FF7525FFE554F4F5B0
:1004F000267527FF7528FFAF22EF3395E0FEE54212
:100500002FFBE43EFA7C007D0AAF03FE1202ED747D
:10051000522FF8E6F4F5297C007D0AAF03AE0212F3
:0B05200002ED74522DF8E6F4F52A22DB
:1007D200120B897FA0120985120B667F011209850F
:1007E200120B66120B897FA1120985120B66120A7F
:1007F200A18F4E7F01120B2412000E120B897FA0D3
:10080200120985120B667F02120985120B66120B02
:10081200897FA1120985120B66120AA17546008F03
:10082200477F01120B2412000EE547F546E54EF50F
:0208320047225B
:1008D300120B897FA0120985120B667F011209850D
:1008E300120B66AF4E120985120B6612000E120729
:1008F30052120A01120B897FA0120985120B667F1F
:1009030002120985120B66AF4D120985120B66029E
:02091300000ED4
:100B5100538EBF53890F758BB0758D3CC28FC28E7A
:050B6100D2AFD2AB226F
:03001B00020B0CC9
:100B0C00C0E0C0D00540E540C394144006754000D9
:080B1C00754A01D0D0D0E0328F
:100A25008F08120B897F90120985120B667F401281
:100A35000985120B66AF08120985120B6602000EB6
:060A0100120350120890E0
:100A0700E549B40113D3E54C9542E54B9400400406
:0E0A17007FCC80067F6680027F14120A2522A3
:10052B00C2B5D2B4D2B3D2B220B2787F6412000378
:10053B0020B270758BB0758D3CE4F540D28E20B235
:10054B000CE54A7008120752120A0180F1C28EE5BF
:10055B004A7041E545B40108754502755001804369
:10056B00754501755101E5227004E52B6035E522D7
:10057B002542F542E52B2548F548E4F522F52B05F8
:10058B0047E54770020546E546F54DE547F54E1242
:10059B0008D3800FE4F54AE54970057549018003DE
:1005AB00E4F54920B35F7F6412000320B357758BCA
:1005BB00B0758D3CE4F540D28E20B30CE54A700843
:1005CB00120752120A0180F1C28EE54A702DE545E1
:1005DB00B40119E550B401057550028028E550B4FB
:1005EB000205755003801E7550018019E551B40149
:1005FB0005755102800F755101800AE4F54AF546E5
:10060B00F5471208D3C2B4D2B5D2B3D2B220B26876
:10061B007F6412000320B260E5456402704FE55120
:10062B00B40125AF2BEF3395E0FEE5482FFFE43EF9
:10063B00CF2402CF3400FED3EF9463EE648094801A
:10064B00502B052B052B8025AF22EF3395E0FEE5D4
:10065B00422FFFE43ECF2405CF3400FED3EF94634B
:10066B00EE64809480500674052522F52220B20892
:10067B00120752120A0180F520B33F7F6412000368
:10068B0020B337E545B40227E551B40111E5482500
:10069B002B24FEC394004017152B152B8011E5421C
:1006AB00252224FBC39400400674FB2522F522204F
:0B06BB00B308120752120A0180F5225A
:100A45007F071209157580FF7F041209157580FF50
:100A55000F120915E4F580120B3C120B510207D257
:100A6500120A45120752120350E53FC394C84006C7
:0E0A7500120890E4F53F120A0712052B80E5E7
:040ABE00D2A17F053D
:100AC200000000000000000000000000000000AE76
:060AD200071FEE70EB228D
:0F0B8900D2A1120ABEC2A17F05120AC2C2A122C6
:0C000E00C2A1120ABED2A17F05020AC2E4
:02098500AD07BC
:10098700E4FCC2A17F05120AC2ED30E704D2A180C0
:1009970002C2A17F05120AC2D2A1ED25E0FD7F05A3
:0909A700120AC20CBC08DBC2A15B
:0109B0002224
:100AA100E4FC120ABEED25E0FD30A103430501C2BD
:0C0AB100A17F05120AC20CBC08E8AF05CA
:010ABD002216
:100B6600120ABEA2A1E433FDC2A17F05120AC2AFDA
:010B76000579
:010B7700225B
:100B2400C2A1EF24FF92A17F05120AC2120ABEC21B
:080B3400A1D2A17F05020AC253
:040AD8007F057E0018
:100ADC00EF1FAA0670011E4A600BE4FDEDC3940CD7
:050AEC0050EE0D80F743
:010AF10022E2
:020A8300A907C1
:100A8500E4FBC294E9139294120AD8D294E9C313F1
:0C0A9500F90BBB08ED7F057E00020ADCB7
:100AF200E4FBC294ECC313FCD2943094034304800D
:090B0200120AD80BBB08EBAF048A
:010B0B0022C7
:1009DA00C200D2947F0C7E00120ADCC2947F507E41
:1009EA0000120ADCD2947F0A7E00120ADCA29492D8
:0609FA0000120AD8A20061
:010A000022D3
:10001E000202C6E86480F8E933E83360110460F048
:10002E00ED33EC337009E8FCE9FDEAFEEBFF220448
:10003E0060DED3EB9FEA9EE99DE8C2E78CF0C2F743
:10004E0095F0400CE8CCF8E9CDF9EACEFAEBCFFB0F
:10005E0012029185D0F05804700320D5B3E80470D5
:10006E00075002B2D50202D092D5EC0460F7E4CC70
:10007E00C0E0C398F8603B94186008400DD0E0FBD8
:10008E000202A8E4FBFAC9FC8028E830E406E4C9C1
:10009E00FBE4CAFCE830E305E4C9CACBFCE854072C
:1000AE006010F8C3E913F9EA13FAEB13FBEC13FC37
:1000BE00D8F130F52FC3E49CFCEF9BFFEE9AFEEDDA
:1000CE0099FDD0E0FBEF4E4D4C701222DB03020285
:1000DE00CDEC2CFCEF33FFEE33FEED33FDED30E7D0
:1000EE00EB0202A8EF2BFFEE3AFEED39FDD0E0FB5E
:1000FE0050130BBB00030202D0ED13FDEE13FEEF07
:08010E0013FFEC13FC0202A830
:10011600EC4D6011E8497017ED33EC3304600DE4E3
:10012600FCFFFEFD22E933E8330470F80202C61232
:10013600029158046009E4CC248150062850090233
:1001460002D02840030202CDC0E0EB4A7044B980D9
:1001560006D0E0FB0202BCEF4E701CBD8008EBFF30
:10016600EAFEE9FD80EBE98DF0A4FEE5F00201FF71
:10017600E9CDF9EAFEEBFFEF89F0A4FCE5F0CE89C4
:10018600F0A42EFFE435F0CD89F0A42DFEE435F081
:100196008067EF4E7005BD80D780C3EF8BF0A4ACAF
:1001A600F0EE8BF0A42CFCE435F0F8EF8AF0A42CEA
:1001B600E5F038FCE433CB8DF0A42CFCE5F03BF8FD
:1001C600EE8AF0A42CFCE5F038F8E433CF89F0A4ED
:1001D6002CFCE5F038CF3400CE89F0A42FFFE5F0F3
:1001E6003EFEE433C98DF0A42EFEE5F039CD8AF04B
:1001F600A42FFFE5F03EFEE43DFD33D0E0FB5007C3
:100206000BBB000F0202D0EC2CFCEF33FFEE33FEEB
:06021600ED33FD0202A819
:10021C0075F020800E75F010800575F0087D007E5D
:10022C00007F003392D530D503120342EC334010DB
:10023C00EF33FFEE33FEED33FDEC33FCD5F0ED2266
:0E024C00E5F0247EA2D513CC92E7CDCEFF22A2
:10025A00EDD2E7CD33EC3392D524814006E4FFFE9C
:10026A00FDFC22FCE4CFCECDCC24E0501174FF80FB
:10027A00EDC3CC13CCCD13CDCE13CECF13CF047098
:07028A00F030D5DE02034253
:10029100E9D2E7C933E833F892D5EDD2E7CD33ECB3
:0702A10033FC5002B2D5222C
:1002A800EC30E7100FBF000C0EBE00080DBD0004B7
:1002B8000BEB6014A2D5EB13FCED92E7FD2274FF63
:1002C800FCFDFEFF22E480F8A2D574FF13FC7D80BC
:0302D800E480EFD0
:030000000206C62F
:0C06C600787FE4F6D8FD75816102070D15
:1002DB00EF8DF0A4A8F0CF8CF0A428CE8DF0A42E37
:0202EB00FE22F1
:1002ED00BC000BBE0029EF8DF084FFADF022E4CCF5
:1002FD00F875F008EF2FFFEE33FEEC33FCEE9DECBE
:10030D00984005FCEE9DFE0FD5F0E9E4CEFD22ED03
:10031D00F8F5F0EE8420D21CFEADF075F008EF2F4D
:10032D00FFED33FD4007985006D5F0F222C398FD3E
:05033D000FD5F0EA22DB
:0E034200C3E49FFFE49EFEE49DFDE49CFC22CC
:1006D200020A65E493A3F8E493A34003F68001F2CF
:1006E20008DFF48029E493A3F85407240CC8C33329
:1006F200C4540F4420C8834004F456800146F6DFF8
:10070200E4800B0102040810204080900834E47E4B
:10071200019360BCA3FF543F30E509541FFEE493EC
:10072200A360010ECF54C025E060A840B8E493A3B3
:10073200FAE493A3F8E493A3C8C582C8CAC583CADE
:10074200F0A3C8C582C8CAC583CADFE9DEE780BE96
:01088F000068
:00000001FF
