:100937003F065B4F666D7D077F6F777C395E797108
:0B094700BF86DBCFE6EDFD87FFEF462B
:10069A00071981838587898B8D07268082848688BE
:1006AA008A8C013000012D00012F00012E01010E5C
:1006BA0001010F01011701011801021000000223B4
:1006CA0000000221000002080000021200000215C8
:1006DA000000012500011402010B14012000010C85
:0706EA0000010A00010D00F0
:070A1500AE071FEE70FA228C
:10083A00EF24FC601114601714601D146023240750
:10084A00702753A01F22E5A0541F4480F5A022E57B
:10085A00A0541F44A0F5A022E5A0541F44C0F5A04F
:0A086A0022E5A0541F44E0F5A0228F
:0C07C40075F00A8490093793F4FD7F065D
:1007D000AE077F0612083AAF067401A80708800228
:1007E000C333D8FCF5807F0712083A8D807FF4125E
:0F07F0000A157F0712083A7580FFE4FF02083AE6
:1008D400E4F5317D807F8E1209B0E531C394075071
:1008E4001074262531F8E6FFE4FD1209B0053180C5
:0808F400E9E4FD7F8E0209B06A
:10073C007F851208748F307F831208748F2D7F8110
:10074C001208748F2FE530C4540F75F00AA4FFE51E
:10075C0030540F2FF530E52DC4540F75F00AA4FF5B
:10076C00E52D540F2FF52DE52FC4540F75F00AA469
:09077C00FFE52F540F2FF52F2289
:060A1C0000007F21DFFE57
:010A220022B1
:1009E900E4FED290120A1CC290120A1C0EBE08F232
:0109F90022DB
:10099B00538E7F5389F0758A9C758CFFC28DC28CE8
:0509AB00D2AFC2A92239
:100785001209E9D28C308DFD2091FAC28C308D0989
:10079500C28D7510037511E722AF8C7510008F118E
:1007A500E511AD8AF510EDF511AE10FF7C007D1158
:0F07B5001206337C037DE81206458E108F112249
:1004F300E517640160030205A6E5256401704CF568
:10050300251207850513E51370020512E51125165B
:10051300F516E5103515F515FEAF167C007D0A12AC
:100523000633AC12AD131206458E088F09D3E524AA
:100533009511E52395105006851023851124C3E5F5
:10054300229511E5219510405A8052E52F8514F02C
:1005530084E5F0704E1207850513E513700205124A
:10056300E5112516F516E5103515F515FEAF167CC4
:10057300007D0A120633AC12AD131206458E088FA6
:1005830009D3E5249511E52395105006851023859D
:100593001124C3E5229511E521951040068510210C
:0405A300851122227A
:0306F2001204F3FC
:1006F5001209FA7F901208A81209D77F011208A8DB
:100705001209D71209FA7F911208A81209D71209FE
:100715001A8F0A7F0112096C120A09E517B401162E
:10072500E50AC39446500CE50DB4010A752501E4AC
:07073500F50D22750D0122F4
:1007FF001209FA7F901208A81209D77F411208A890
:10080F001209D7E511AE107802C333CE33CED8F923
:10081F002432FFE43EFE7C007D331206337D461208
:0B082F0006451208A81209D7020A09AA
:10000300E52E6401600302036AE50E6401705BE59B
:100013003075F00A8490093793F4FDE4FF1207D09A
:10002300E53075F00A84E5F093F4FD7F011207D003
:100033007DBF7F021207D0E52D75F00A8493F4FD8E
:100043007F031207D0E52D75F00A84E5F093F4FDE4
:100053007F041207D07DBF7F051207D0E53075F00E
:100063000A841207CBE5300203B4E50E6402600391
:100073000201187DC7FF1207D0E517B401059009E7
:10008300438003900946E493F4FD7F011207D07D7A
:10009300FF7F021207D07F031207D07F041207D01D
:1000A300D3E5119463E5109400401BAE10AF117CAF
:1000B300007D6412064574372FF58274093EF5837B
:1000C300E493F4FD80027DFF7F051207D0D3E51191
:1000D3009409E51094004028AE10AF117C007D64B4
:1000E3001206457E007F0ACFCDCFCECCCE12064579
:1000F30074372FF58274093EF583E493F4FD80028F
:100103007DFF7F061207D0E53075F00A84E5F09095
:1001130009370203BA7D89E4FF1207D07DFF7F020E
:100123001207D07F031207D0E518640160030201B0
:10013300F41D7F011207D0D3E52494E7E52394034C
:10014300401BAE23AF247C037DE812064574372F92
:10015300F58274093EF583E493F4FD80027DFF7F0D
:10016300041207D0D3E5249463E52394004028AE1A
:1001730023AF247C037DE81206457E007F64CFCD48
:10018300CFCECCCE12064574372FF58274093EF5D7
:1001930083E493F4FD80027DFF7F051207D0D3E54E
:1001A300249409E52394004028AE23AF247C007DEA
:1001B300641206457E007F0ACFCDCFCECCCE120689
:1001C3004574372FF58274093EF583E493F4FD807B
:1001D300027DFF7F061207D0AE23AF247C007D0A89
:1001E30012064574372DF58274093CF583E4020346
:1001F300BAE518640260030202AA7DBF7F011207F9
:10020300D0D3E50994E7E5089403401BAE08AF0992
:100213007C037DE812064574372FF58274093EF599
:1002230083E493F4FD80027DFF7F041207D0D3E5BE
:10023300099463E50894004028AE08AF097C037D68
:10024300E81206457E007F64CFCDCFCECCCE12061A
:100253004574372FF58274093EF583E493F4FD80EA
:10026300027DFF7F051207D0AE08AF097C007D64D5
:100273001206457E007F0ACFCDCFCECCCE120645E7
:1002830074472FF58274093EF583E41207CBAE0859
:10029300AF097C007D0A12064574372DF582740977
:1002A3003CF583E40203BA7DF77F011207D0D3E55F
:1002B3002294E7E5219403401BAE21AF227C037D0A
:1002C300E812064574372FF58274093EF583E493EB
:1002D300F4FD80027DFF7F041207D0D3E5229463EF
:1002E300E52194004028AE21AF227C037DE812066D
:1002F300457E007F64CFCDCFCECCCE12064574377A
:100303002FF58274093EF583E493F4FD80027DFFAB
:100313007F051207D0D3E5229409E52194004028F4
:10032300AE21AF227C007D641206457E007F0ACF9A
:10033300CDCFCECCCE12064574372FF58274093E4D
:10034300F583E493F4FD80027DFF7F061207D0AEB0
:1003530021AF227C007D0A12064574372DF5827485
:10036300093CF583E480507D8CE4FF1207D07DFFC8
:100373007F021207D07F031207D07F041207D07FBA
:10038300051207D0E50F6401701490093893F4FD4A
:100393007F011207D0E50C1207C4E50C8013900906
:1003A30039E493F4FD7F011207D0E5201207C4E579
:1003B3002075F00A84E5F093F4FD7F071207D0223D
:1008FC007F0412083A7580FF7F0712083A7580FF53
:0E090C007F0512083AE4F5801208D402099B18
:1003C300C2C4D2B2D2B3D2C220B32C7F64120A15F4
:1003D30020B324E52EB40105752E028009752E0184
:1003E300850C1485200B20B30E12073C1206F21263
:1003F30007FF12000380EF20B2447F64120A152026
:10040300B23CE52EB40119E50EB40105750E028068
:100413001CE50EB40205750E038012750E01800DE6
:10042300E50FB40105750F028003750F0120B20EAD
:1004330012073C1206F21207FF12000380EFC2C23A
:10044300D2B2D2B3D2C420B3527F64120A1520B3FE
:100453004A752E01E50EB4020FE517B401057517B1
:10046300028024751701801F752E01E50EB4031752
:10047300E518B40105751802800DE518B402057579
:100483001803800375180120B31112073C1204F3FB
:100493001206F51207FF12000380EC20B2517F64AD
:1004A300120A1520B249E52E6402702FE50FB4013C
:1004B3001AE50CB40205750C038020E50CB409059C
:1004C300750C028016050C050C8010E520B4500550
:1004D30075200A8006740A2520F52020B211120720
:1004E3003C1204F31206F51207FF12000380EC22FC
:100984001208FC12073C1204F31206F51207FF12B8
:0709940000031203C380EC15
:1009C400E4FEC297EF1392A3EFC313FFD2970EBEB8
:0209D40008F029
:0109D60022FE
:1009B000C29300C29700D293001209C4AF05120976
:0409C000C4C29322F8
:10087400E4FDC29300C29700D293001209C4E4FFBE
:10088400C297EDC313FD30A303430580D2970FBF76
:1008940008EEC29300C29700D29700C2A300D2A36D
:0308A40000AF059D
:0108A700222E
:04095200D2A07F05AB
:10095600000000000000000000000000000000AEE3
:06096600071FEE70EB22FA
:0F09FA00D2A1120952C2A17F05120956C2A02232
:0C0A0900C2A1120952D2A17F05020956B9
:0208A800AD079A
:1008AA00E4FCC2A07F05120956ED30E704D2A1800C
:1008BA0002C2A17F05120956D2A0ED25E0FD7F05EF
:0908CA001209560CBC08DBC2A0A7
:0108D3002202
:10091A00E4FC120952ED25E0FD30A103430501C2B2
:0C092A00A07F051209560CBC08E8AF05C0
:01093600229E
:1009D700120952A2A1E433FDC2A07F05120956AF46
:0109E700050A
:0109E80022EC
:10096C00C2A0EF24FF92A17F05120956120952C2B0
:08097C00A0D2A17F050209567B
:030000000205A74F
:0C05A700787FE4F6D8FD7581310205EE86
:10063300EF8DF0A4A8F0CF8CF0A428CE8DF0A42EDB
:02064300FE2295
:10064500BC000BBE0029EF8DF084FFADF022E4CC99
:10065500F875F008EF2FFFEE33FEEC33FCEE9DEC62
:10066500984005FCEE9DFE0FD5F0E9E4CEFD22EDA8
:10067500F8F5F0EE8420D21CFEADF075F008EF2FF2
:10068500FFED33FD4007985006D5F0F222C398FDE3
:050695000FD5F0EA2280
:1005B300020984E493A3F8E493A34003F68001F2D1
:1005C30008DFF48029E493A3F85407240CC8C33349
:1005D300C4540F4420C8834004F456800146F6DF18
:1005E300E4800B010204081020408090069AE47E08
:1005F300019360BCA3FF543F30E509541FFEE4930D
:10060300A360010ECF54C025E060A840B8E493A3D3
:10061300FAE493A3F8E493A3C8C582C8CAC583CAFE
:10062300F0A3C8C582C8CAC583CADFE9DEE780BEB6
:0106F1000008
:00000001FF
